:1000000000600020E9040000F9040000F904000089
:1000100000000000000000000000000000000000E0
:10002000000000000000000000000000F9040000D3
:100030000000000000000000F9040000F9040000C6
:10004000F9040000F9040000F9040000F9040000BC
:10005000F9040000F9040000F9040000F9040000AC
:10006000F9040000F9040000F9040000F90400009C
:10007000F9040000F9040000F9040000F90400008C
:10008000F9040000F9040000F9040000F90400007C
:10009000F9040000F9040000F9040000F90400006C
:1000A000F9040000F9040000F9040000F90400005C
:1000B000F9040000F9040000F9040000F90400004C
:10040000FFFFFFFFFFFFFFFFFFFFFFFFFEFFFFFFFD
:1004100010B5064C2378002B07D1054B002B02D0DA
:10042000044800E000BF0123237010BD70E0FF1FEF
:100430000000000018140000084B10B5002B03D07A
:100440000749084800E000BF07480368002B00D1B7
:1004500010BD064B002BFBD09847F9E700000000C9
:1004600074E0FF1F181400006CE0FF1F0000000084
:10047000164B002B00D1144B9D46402292029A1A33
:10048000924600218B460F461348144A121A00F078
:100490009BFF0F4B002B00D098470E4B002B00D03A
:1004A00098470020002104000D000D48002802D0CC
:1004B0000C4800E000BF00F061FF2000290000F0C0
:1004C0008FF900F045FFC0460000080000600020E2
:1004D000000000000000000070E0FF1F04E1FF1FAB
:1004E000000000000000000072B600F06DFA00F09D
:1004F00073FA62B6FFF7BCFF00480047F90400003A
:1005000002B4714649084900095C49008E4402BCA6
:100510007047C046002243088B4274D303098B42C4
:100520005FD3030A8B4244D3030B8B4228D3030CC3
:100530008B420DD3FF22090212BA030C8B4202D365
:100540001212090265D0030B8B4219D300E0090A8D
:10055000C30B8B4201D3CB03C01A5241830B8B4296
:1005600001D38B03C01A5241430B8B4201D34B037F
:10057000C01A5241030B8B4201D30B03C01A5241E4
:10058000C30A8B4201D3CB02C01A5241830A8B4269
:1005900001D38B02C01A5241430A8B4201D34B0252
:1005A000C01A5241030A8B4201D30B02C01A5241B6
:1005B000CDD2C3098B4201D3CB01C01A524183096A
:1005C0008B4201D38B01C01A524143098B4201D3A4
:1005D0004B01C01A524103098B4201D30B01C01ACF
:1005E0005241C3088B4201D3CB00C01A5241830849
:1005F0008B4201D38B00C01A524143088B4201D376
:100600004B00C01A5241411A00D2014652411046D5
:100610007047FFE701B5002000F006F802BDC046B4
:100620000029F7D076E770477047C0460023834221
:1006300002DAC0460133FAE77047000070B50C00DB
:1006400010212B4B16001D009A780A439A709A7855
:1006500049180A439A701871EB785BB2002BFBDAE9
:1006600096204000FFF7E2FF9620214B40001E71CC
:10067000FFF7DCFFEA781E4B52B2002AFADA0421B7
:100680009A780A439A701C71EB78194C5BB2002B74
:10069000FADA96204000FFF7C9FF1022A3789343AF
:1006A000A3702379EB78124C5BB2002BFADA962018
:1006B0004000FFF7BBFF08229620A37840001343B9
:1006C000A3702679FFF7B2FF1022A378F6B2134386
:1006D000A3702023A2789A43A270E978044A1942B1
:1006E000FBD00821937830008B43937070BDC046D7
:1006F0000060064070B50E001021164B15001C005E
:100700009A780A439A709A7849180A439A7018712D
:10071000E3785BB2002BFBDA96204000FFF786FF00
:100720000C4B1E71E3785BB2002BFBDA9620400085
:10073000FFF77CFF074B1D71E378064D5BB2002B82
:10074000FADA96204000FFF771FF2022AB7893433E
:10075000AB7070BD006006408020124B12498001D2
:100760005A5830B5024340205A501049A0255A58D3
:10077000ED0002435A5000220D4B0E491A705A7078
:100780009A70DA705A719A71DA710C6E2C430C6699
:10079000486E2843486608215970B83199701A711B
:1007A00030BDC04600700440381000003410000016
:1007B0000060064000D00440F8200749074A10B501
:1007C0008B58800103438B5000F042F800F068F82A
:1007D000FFF7C2FF10BDC046007004403810000093
:1007E00010B5FFF7E9FF00F093F901222A213A2022
:1007F000FFF780FF642000F07DF901223B213A20C1
:10080000FFF71CFFF6E70000002805D18023034A0C
:100810009B001360024A13607047C0460490145452
:10082000089014541FB510220021684600F0CCFD3A
:10083000064B6A4600930223694653720020013B2F
:10084000937200F0C3F905B000BDC04600127A00F3
:100850002A2270B500250C4B1A700C4B1D600C4BF6
:100860001D60FFF7DFFF0B4C2000103000F000FA96
:10087000210028000E3100F095F9200000F050F919
:10088000054A064B1A6070BD00E0074048901454BA
:100890004C901454E8130000006CDC0200E0FF1FD1
:1008A00010B50020FFF7B0FF8022E121044BD204F5
:1008B0001A6049020F22002000F004F810BDC04663
:1008C00004800C5DF0B5364B87B01E7807000191AF
:1008D0001D000320002E60D1F9B20091694609780D
:1008E0001A7059700F2A33D00120102A55D103AB4A
:1008F0009C4619002B4A19CA19C16346BA00D4583C
:1009000038006C6000F042FA380000F02FFA019ACB
:100910000100200000F0C6FC9022A31C52051343E6
:100920001E702000310000F0D7FC94235B052343A8
:100930001E708C23082203345B0523431A7088231E
:100940005B051C4304232370174BAB60174B1FE060
:10095000174C38005C6000F011FA380000F0ECF938
:10096000019A0100200000F019FA124B20001E70BD
:10097000310000F070FA942308225B051C430E4BF3
:1009800026701A700D4B043A1A700D4BAB600D4B6C
:10099000EB606B4600201B786B7007B0F0BDC04663
:1009A0008CE0FF1FDC130000F71200001913000099
:1009B00000A0064002A0065203A0865103A00651E3
:1009C000750E0000950E000088230021014A5B018E
:1009D000D150704700700440154B164810B51900EF
:1009E00083420CD00023144A920892009A4203D00A
:1009F000C458CC500433F9E7104B996001E00F4A1A
:100A0000936000230E4A0F490F48891A8B4203D086
:100A1000D45CC4540133F9E7002318000B4A0C4995
:100A2000891A994203D0D41820700133F9E710BD18
:100A300000000000000000000000000000ED00E0E9
:100A400040140000B014000000E0FF1F70E0FF1F22
:100A500004E1FF1FF7B501240C4B00261C606B4618
:100A60000B4F0C4D1C705C703E600099280000F02C
:100A70004AFA01AB1E705C702800019900F025FA5B
:100A800098235B051D432E603C60F7BD3880045001
:100A9000000004500000044080230A1A5B02D318AF
:100AA000814200D3130018007047000000220A4B57
:100AB0009A641A0040329A631A0030329A621A001D
:100AC00020329A611A0010329A60044A1360044B73
:100AD0009B60DB607047C046B0E0FF1FACE0FF1FCB
:100AE0009CE0FF1F10B5024800F01EFA10BDC04682
:100AF0000000044070B50400FFF7F4FF0500FFF7A5
:100B0000F1FF01002800FFF7C7FFA042F7D970BD31
:100B100010B5FFF7CBFFFFF79DFF002010BD0000D1
:100B2000F7B51C4D04000021280000F007FA03224D
:100B30002B7838201A408023A1795B42C9001343E7
:100B400001400B43DBB2144A2B701378002BFCD10D
:100B5000124A1378114F022BFBD1227B0D4D0092CC
:100B60000022E37A1100280000F042FB061E0ED19D
:100B70000B4B1D4328703B78032BFCD1A378002B33
:100B800005D0E37862792179024800F08FFA3000CD
:100B9000FEBDC046004006400640065206400E51CB
:100BA00000000813084B8000C2589C200B784005B9
:100BB000DB011043DBB2037094235B051A434B78CF
:100BC0005B01DBB213707047FC13000070B58B7AC9
:100BD00005000C00012B14D1097962794B1E994153
:100BE000531E9A41A379C900581E8341E0799200AF
:100BF00001435B00114319430F4BAA00D05800F08A
:100C00003BFB210028000B31FFF7CCFFA37A227AAF
:100C1000617A0A4800F0DAFAA37A012B06D1E37A66
:100C2000002B03D0064A1378002BFCD02268054B1A
:100C300000201A6070BDC046FC1300000040064052
:100C40000640865000E1FF1F4309084A9B0099189F
:100C5000F822C30512051A4080235B0513431F22A7
:100C600010401E3A82400B431A60704728800440AF
:100C700037B5C3788178009300230500074C1A002C
:100C8000200000F001FB2B78054A1B041360054B84
:100C90001C436B789B04236037BDC0460070044042
:100CA000048004580000081910B5054800F06CFADB
:100CB000044B1968C9B20131FFF72CFC10BDC046C6
:100CC0000040064044801C5E10B5FFF7EDFF034B6B
:100CD0001968C9B20131FFF71DFC10BD44801458DA
:100CE000094B10B51B68DBB2002B06D0012B08D1D5
:100CF000064800F005FA400804E0044800F086F9D0
:100D000000E0002010BDC0460480045800400640AA
:100D10009C230020064A5B05126882B013431B78AF
:100D20000192834201D0034B186802B07047C0465D
:100D3000FC13000000E1FF1F0A4B10B51B68DBB27B
:100D4000022B07D0032B08D00020012B08D1FFF77E
:100D5000C7FF05E0FFF7DCFF02E0034800F0F4F90D
:100D600010BDC04604800C5D00400640030010B575
:100D70000020022B01D8FFF7A7FF10BD8022024BF5
:100D8000D2001A607047C0463480045510B5024B3B
:100D9000185CFFF759FF10BD00140000F0B50F00FC
:100DA00087B09100029038001400FFF7B3FB810078
:100DB00006003800FFF7AEFB231A0193844201D2EC
:100DC000031B019305252B00634304930423039322
:100DD00004993800FFF79EFB83B21900380069437D
:100DE0000593FFF797FB231A844200D2031B019A55
:100DF000934202D8059E01930395049B01351B196C
:100E00000493212DE4D164212000FFF783FB032309
:100E10004343019A02209A421BD2039B043B032BBB
:100E200005D88022029B12050B33134318708122D0
:100E300000200299039B52050A31013B1143DBB2AA
:100E40000B70029B1A43330ADBB21370029BF6B29B
:100E50005E7007B0F0BD842210B501230C00023093
:100E6000520502439C4314708022520510430B40EC
:100E7000037010BD10B59C24031D64058A1823431C
:100E8000914206D01C78002CFCD00C780131C47142
:100E9000F6E710BDF0B58C23050000202E1D5B0584
:100EA0008A18334391420FD0942464053443277841
:100EB000002FFCD0EC790C701C78002C02D008209C
:100EC000187007300131EDE7F0BD37B5022401ADF0
:100ED00001912B7801685B0023401A006B78A340D6
:100EE000241923401343BE229143AA780434D2002C
:100EF00022400B43134330211A00EB781B010B40B7
:100F00001343036037BD37B504220B1C0D009B0053
:100F100013401C0074326B0B134089052343890F67
:100F20001943416037BD0000034B0C3018430023C8
:100F3000036000687047C046000078108822431C98
:100F4000520513431B78002B06D0842306305B0523
:100F500018430378002BFCD07047D14010B50C002B
:100F6000002B13D0072A10D81000FFF7C9FA040489
:100F70000404040406084C0908E0142100E00C21D4
:100F80002000FFF7C7FA040000E00024200010BD95
:100F9000882313B55B0503431978C9B200290ED124
:100FA000084B094C03431A78431C23431B780091D8
:100FB0000649D2B2DBB20968FFF7CFFF01E0044B6C
:100FC000186816BD000090110000081200E1FF1F14
:100FD00004E0FF1F30B5002A05D080240020240241
:100FE000A14206D90BE0064C064D0C191000AC428C
:100FF00005D85B009A18044B5200D05A484330BDC4
:10100000EE85FFFF851E000004140000942210B539
:10101000831D520513431B780400002B01D00020D0
:1010200010E0FFF7B5FF011EF9D09C220648E31C33
:1010300052051A43034312781B78D2B2DBB2200068
:10104000FFF7C8FF10BDC04600008812030030B58E
:10105000154A083313431B788B4223D08023441C4A
:101060005B051C432278002A08D1037A0E3249001E
:101070001140013293431943017213E000222270A0
:10108000821D1A431378002BFCD10E25037A4900E8
:1010900029400135AB4319430123017223701378B2
:1010A000012BFCD130BDC04600009010F7B5802464
:1010B0000093831D06000F00451C64050193012960
:1010C00013D11100FFF7C2FFB31D234325431C00BA
:1010D0002F702378012BFCD1032233789343013AFC
:1010E0001343009A1A433270F7BD002325432B7037
:1010F000831D23431C002378002BFCD1ECE7000068
:10110000942270B50400831D520513431878231DE3
:10111000C0B2002805D1982252051A431278002A3D
:101120000FD081256D052B431978064B01311868C6
:10113000C9B2FFF7EFF905342C4323781833DBB23B
:10114000584370BD00E1FF1F842252050243030093
:1011500000201278824210D080215A1C49050A438F
:101160001278824202D1054B186806E00448083321
:10117000044A03431B781068D840704704E0FF1FFF
:101180000000901008E0FF1F10B50E49821D0A43B1
:1011900012780300D2B20020032A12D81000FFF701
:1011A000AFF9060A0E021800FFF7AAFF09E01800BF
:1011B000FFF72CFF05E01800FFF7C6FF01E0024B28
:1011C000186810BD0000081100E1FF1F30B50425AC
:1011D00044789B002B403835AC4323430824D2008D
:1011E0002240090128341A4321401143417030BD87
:1011F0008422F8B51D0006AB1F785205431C13432B
:10120000002204001A701A4B803203431A70194BE3
:10121000861D33431A78022AFCD12000FFF78EFE88
:10122000982100224905231D0B431A70631D1943A1
:101230000A709422520532431378002BFCD1207996
:101240001F3398431D400543257160791F40984323
:101250000743213367710B701378002BFCD0982360
:101260005B051E433378002BFCD00020F8BDC04640
:1012700000000813000008110F220378934319435C
:10128000C9B20170704700006B46E0221B78D202A1
:101290001B04134009071943014BC1507047C04656
:1012A0004410000070B5040008001101FFF732F986
:1012B00083B25A1E074D92B20221AA4207D8812258
:1012C0000021520522431B0AC0B21370607008004F
:1012D00070BDC046FE1F0000842210B501230C0023
:1012E0000230520502439C43147080225205104381
:1012F0000B40037010BD30B59C24031D64058A1893
:101300002343914207D01C78002CFCD00C7805793F
:101310000131C471F5E730BDF0B503008C24002025
:101320001E1D64058A183443914210D094256D0522
:1013300035432F78002FFCD01D79DD790D7025788D
:10134000002D02D01879D8790F200131ECE7F0BDDB
:10135000084B10B50400002B02D0002100E000BFB4
:10136000054B1868836A002B00D09847200000F0D6
:1013700033F8C04600000000141400000E4B70B596
:1013800000251E000D4CE41AA410A54204D0AB00A9
:10139000F35898470135F8E700F03EF8084B002570
:1013A0001E00084CE41AA410A54204D0AB00F35868
:1013B00098470135F8E770BD381400003814000074
:1013C000381400003C14000003008218934202D03D
:1013D00019700133FAE77047FEE7C04600000000CD
:1013E00000B0064000C0064080000100000003007D
:1013F000000000010000010001030103005006404D
:10140000FF6B6C008002DC020005B80580079508C0
:10141000000A710B0CE0FF1FF8B5C046F8BC08BC11
:101420009E467047F8B5C046F8BC08BC9E4670475B
:0814300040F0FF7F0100000005
:041438003904000073
:04143C001104000097
:10144000000040010080000000093D000000000095
:10145000000000000000000000000000000000008C
:10146000000000000000000000000000000000007C
:10147000000000000000000000000000000000006C
:10148000000000000000000000000000000000005C
:10149000000000000000000000000000000000004C
:1014A000000000000000000000000000000000003C
:04000003000004E90C
:00000001FF
