:1000000000600020E9040000F9040000F904000089
:1000100000000000000000000000000000000000E0
:10002000000000000000000000000000F9040000D3
:100030000000000000000000F9040000F9040000C6
:10004000F9040000F9040000F9040000F9040000BC
:10005000F9040000F9040000F9040000F9040000AC
:10006000F9040000F9040000F9040000F90400009C
:10007000F9040000F9040000F9040000F90400008C
:10008000F9040000F9040000F9040000F90400007C
:10009000F9040000F9040000F9040000F90400006C
:1000A000F9040000F9040000F9040000F90400005C
:1000B000F9040000F9040000F9040000F90400004C
:10040000FFFFFFFFFFFFFFFFFFFFFFFFFEFFFFFFFD
:1004100010B5064C2378002B07D1054B002B02D0DA
:10042000044800E000BF0123237010BD74E0FF1FEB
:100430000000000080230000084B10B5002B03D003
:100440000749084800E000BF07480368002B00D1B7
:1004500010BD064B002BFBD09847F9E700000000C9
:1004600078E0FF1F8023000070E0FF1F0000000005
:10047000164B002B00D1144B9D46402292029A1A33
:10048000924600218B460F461348144A121A01F077
:10049000EDFA0F4B002B00D098470E4B002B00D0ED
:1004A00098470020002104000D000D48002802D0CC
:1004B0000C4800E000BF01F0B3FA2000290000F072
:1004C0004DFA01F097FAC0460000080000600020D5
:1004D000000000000000000074E0FF1F18E1FF1F93
:1004E000000000000000000072B600F0B9FD00F04E
:1004F000BFFD62B6FFF7BCFF00480047F9040000EB
:100500000023C25C0133002AFBD1581E7047000053
:1005100002B4714649084900095C49008E4402BC96
:100520007047C04603B47146490840004900095A63
:1005300049008E4403BC7047002243088B4274D3A9
:1005400003098B425FD3030A8B4244D3030B8B42D4
:1005500028D3030C8B420DD3FF22090212BA030CDD
:100560008B4202D31212090265D0030B8B4219D3BE
:1005700000E0090AC30B8B4201D3CB03C01A5241DE
:10058000830B8B4201D38B03C01A5241430B8B4226
:1005900001D34B03C01A5241030B8B4201D30B030F
:1005A000C01A5241C30A8B4201D3CB02C01A524136
:1005B000830A8B4201D38B02C01A5241430A8B42F9
:1005C00001D34B02C01A5241030A8B4201D30B02E2
:1005D000C01A5241CDD2C3098B4201D3CB01C01AFC
:1005E000524183098B4201D38B01C01A5241430906
:1005F0008B4201D34B01C01A524103098B4201D3F4
:100600000B01C01A5241C3088B4201D3CB00C01A60
:10061000524183088B4201D38B00C01A52414308D8
:100620008B4201D34B00C01A5241411A00D20146FD
:10063000524110467047FFE701B5002000F0F0F886
:1006400002BDC0460029F7D076E7704703460B434A
:100650007FD4002243088B4274D303098B425FD3BB
:10066000030A8B4244D3030B8B4228D3030C8B42E7
:100670000DD3FF22090212BA030C8B4202D31212CD
:10068000090265D0030B8B4219D300E0090AC30BA2
:100690008B4201D3CB03C01A5241830B8B4201D34F
:1006A0008B03C01A5241430B8B4201D34B03C01A38
:1006B0005241030B8B4201D30B03C01A5241C30AB0
:1006C0008B4201D3CB02C01A5241830A8B4201D321
:1006D0008B02C01A5241430A8B4201D34B02C01A0B
:1006E0005241030A8B4201D30B02C01A5241CDD2B0
:1006F000C3098B4201D3CB01C01A524183098B42FB
:1007000001D38B01C01A524143098B4201D34B01E3
:10071000C01A524103098B4201D30B01C01A524146
:10072000C3088B4201D3CB00C01A524183088B42CD
:1007300001D38B00C01A524143088B4201D34B00B6
:10074000C01A5241411A00D2014652411046704728
:100750005DE0CA0F00D04942031000D3404253402D
:1007600000229C4603098B422DD3030A8B4212D3ED
:10077000FC22890112BA030A8B420CD3890192111F
:100780008B4208D3890192118B4204D389013AD05C
:10079000921100E08909C3098B4201D3CB01C01A31
:1007A000524183098B4201D38B01C01A5241430944
:1007B0008B4201D34B01C01A524103098B4201D332
:1007C0000B01C01A5241C3088B4201D3CB00C01A9F
:1007D000524183088B4201D38B00C01A5241D9D2B7
:1007E00043088B4201D34B00C01A5241411A00D238
:1007F0000146634652415B10104601D34042002B34
:1008000000D54942704763465B1000D3404201B5B2
:10081000002000F005F802BD0029F8D016E7704767
:100820007047C0460A4B10B51A68002A01D1094A20
:100830001A601A6808491018884206D901F0D4F8DD
:100840000C2303600120404201E01860100010BD3D
:1008500090E0FF1F18E1FF1F180100208020124BBD
:10086000124980015A5830B5024340205A5010496D
:10087000A0255A58ED0002435A5000220D4B0E4954
:100880001A705A709A70DA705A719A71DA710C6E25
:100890002C430C66486E2843486608215970B831CD
:1008A00099701A7130BDC0460070044038100000C5
:1008B000341000000060064000D00440F8200649D3
:1008C000064A10B58B58800103438B5000F098F80E
:1008D000FFF7C4FF10BDC046007004403810000090
:1008E0008020084A084BC000D15801432020D15035
:1008F000D1580143D1500022044B9A605A60044AF7
:100900001A60704700700440381000000050044026
:10091000804031008021094B000758605A68C903A4
:100920000A4304215A601868044A0842FBD0042193
:1009300013680B4313605068C0B270470050044006
:1009400007B50300044A0621684601F055F96846D8
:1009500000F026F907BDC0460423000070B5FFF77C
:10096000ADFF00F075F8FFF7BBFF00F01DFC0E486F
:1009700000F016F9642000F009FC0920FFF7CAFF17
:1009800005000A20FFF7C6FF0400084800F008F938
:100990002800FFF7D5FF064800F002F92000FFF716
:1009A000CFFF0448E4E7C0460723000015230000FA
:1009B0005023000012230000002805D18023034AA1
:1009C0009B001360024A13607047C04604901454A1
:1009D000089014541FB510220021684601F046F813
:1009E000064B6A4600930223694653720020013B7E
:1009F000937200F037FC05B000BDC04600127A00CB
:100A00002A2270B500250C4B1A700C4B1D600C4B44
:100A10001D60FFF7DFFF0B4C2000103000F074FC6E
:100A2000210028000E3100F009FC200000F0C4FB7A
:100A3000054A064B1A6070BD00E007404890145408
:100A40004C9014541C230000006CDC0200E0FF1FDB
:100A500010B50020FFF7B0FF8022E121044BD20443
:100A60001A6049020F22002000F018F810BDC0469D
:100A700004800C5D13B56B46D91D074B08701A78BE
:100A8000002A05D058689C680122A047002001E098
:100A90000120404216BDC04694E0FF1FF0B5364B22
:100AA00087B01E78070001911D000320002E60D141
:100AB000F9B20091694609781A7059700F2A33D03B
:100AC0000120102A55D103AB9C4619002B4A19CAA4
:100AD00019C16346BA00D45838006C6000F0A2FC1B
:100AE000380000F08FFC019A0100200000F026FF82
:100AF0009022A31C520513431E702000310000F009
:100B000037FF94235B0523431E708C230822033494
:100B10005B0523431A7088235B051C430423237061
:100B2000174BAB60174B1FE0174C38005C6000F0B0
:100B300071FC380000F04CFC019A0100200000F02C
:100B400079FC124B20001E70310000F0D0FC942381
:100B500008225B051C430E4B26701A700D4B043A9D
:100B60001A700D4BAB600D4BEB606B4600201B7891
:100B70006B7007B0F0BDC04694E0FF1FF822000084
:100B80008F190000B119000000A0064002A0065213
:100B900003A0865103A006510D1500002D1500007D
:100BA0000FB41FB50A4B1B78002B0AD0012207ABEC
:100BB000039300935242069B0649002000F062F81E
:100BC00001E00120404205B008BC04B01847C0460F
:100BD00094E0FF1F750A0000F7B51F0008AB050081
:100BE000187800232B706C1C0E689A4219D09E4214
:100BF00009D130236B702F3B2EE023700600631B5E
:100C00000134002828D030003900FFF71FFD030011
:100C10007B43F61A33003033002EEEDA30239B1B71
:100C2000EBE7002EE5D06123002800D0203B0A3BF3
:100C3000019330003900FFF77FFC03007B43F61A75
:100C4000019B9B19092E01D8330030332370060015
:100C5000631B01340028ECD11800FEBDF7B5060077
:100C60000C001D00FF270192019B9C4209DA300015
:100C7000089B0999384098472B68013401332B6051
:100C8000F2E7F7BDF0B599B0089300230C93130079
:100C90000700039109921E9C013301D0130000E06C
:100CA000B34B0A93089B1878002800D1D0E1390093
:100CB000252800D0C1E100260425089B15385A7864
:100CC000591C2B2A02D102231E4304E02B2A08D8E8
:100CD000202A02D12E430B00F1E7232A09D1064333
:100CE000F9E72D2A01D10123EEE7302A01D10823AB
:100CF000EAE700220A2004925A78591C1500303D78
:100D0000092D06D8049B4343303BD31804930B00B2
:100D1000F2E72E2A05D10B005A780131303A092A20
:100D2000F9D95A78682A06D06C2A08D04C3A514230
:100D30004A419B1809E09A78682A05D102E09A781E
:100D40006C2A01D1023300E001335A1C5B7808920F
:100D500018005838202800D96DE1FFF7E3FB210087
:100D60006C016C016C016C016C016C016C016C011B
:100D70006C01D9002F0123006C016C016C016C0126
:100D800023006C016C016C016C016601D100E10073
:100D90006C016C013A016C01EA006C016C016300AA
:100DA000012340E0231D0593236801220D930123B5
:100DB0000DA900930FA80933FFF70EFF0FAB1B1807
:100DC00007930D9B0400002B02DA01342D2509E066
:100DD0000225354002D001342B2503E0730701D5ED
:100DE0002025013408231E420AD0002D00D1B3E093
:100DF000039B3900280098470C9B01330C93ABE010
:100E000001231E4208D1039B01970093049A0CAB67
:100E100021002020FFF722FF002D00D1B6E039008D
:100E20002800BBE000230693231D059323680022BE
:100E30000E93069B0EA900930FA81023FFF7CCFE7C
:100E400008250FAB1B180793040035401023002D15
:100E50001DD000251E420FD0039B3900302098473B
:100E6000069B7820AB4200D020380125039B390037
:100E700098470C9B02330C93039B2100009301972E
:100E80000CAB049A3020FFF7E9FE049C23E001221A
:100E9000164220D133400B9300D002340025039B2F
:100EA00001970093049A0CAB21002020FFF7D6FE97
:100EB0000B9BAB420FD0039B390030209847069B19
:100EC0007820AB4200D020380125039B3900984799
:100ED0000C9B02330C93F30658D5002D56D1039B7F
:100EE000390030209847069B7820002B00D020380E
:100EF000039B390098470C9B023402330C9345E066
:100F0000231D059323680E9301230093073317E0F5
:100F1000231D059323680E9301230093DB180FE034
:100F200023000833059363680E93012300930F3366
:100F300006E0231D059323680E93012300930933D4
:100F400000220EA90FA8FFF747FE0FAB1B1807934F
:100F5000082304001E420DD0039B2100009301973B
:100F60000CAB049A3020FFF779FE049C0EE0C046DB
:100F7000FEFFFF7F01231E4208D1039B0100009367
:100F800001970CAB049A2020FFF768FE079B1878A6
:100F9000002809D03900079B013B0793039B984722
:100FA0000C9B01330C93F1E701231E424BD0039BB2
:100FB00001970093049A0CAB210032E02068231DB6
:100FC0000593C0B2039B390098470C9B01330C93E7
:100FD00039E0231D24680593002C34D02000FFF74E
:100FE0008FFA012305001E4008D1039B01000093E6
:100FF00001970CAB049A2020FFF730FE20780028E0
:1010000007D0039B390098470C9B013401330C93A4
:10101000F4E7002E17D02900039B049A0093019750
:101020000CAB2030FFF71AFE0DE0231D05930C9A40
:1010300023681A6007E039001800039B98470C9B4F
:10104000059401330C93089B059C0133089329E612
:101050000A9B0998002B00D00C9819B0F0BDC0462F
:1010600088230021014A5B01D15070470070044081
:10107000154B164810B5190083420CD00023144AB2
:10108000920892009A4203D0C458CC500433F9E736
:10109000104B996001E00F4A936000230E4A0F49FC
:1010A0000F48891A8B4203D0D45CC4540133F9E74A
:1010B000002318000B4A0C49891A994203D0D4180E
:1010C00020700133F9E710BD0000000000000000AF
:1010D0000000000000ED00E0A82300001C24000038
:1010E00000E0FF1F74E0FF1F18E1FF1FF7B50124A8
:1010F0000C4B00261C606B460B4F0C4D1C705C703B
:101100003E600099280000F04AFA01AB1E705C7046
:101110002800019900F025FA98235B051D432E60F5
:101120003C60F7BD388004500000045000000440CB
:1011300080230A1A5B02D318814200D313001800DF
:101140007047000000220A4B9A641A0040329A63EA
:101150001A0030329A621A0020329A611A00103254
:101160009A60044A1360044B9B60DB607047C04682
:10117000B8E0FF1FB4E0FF1FA4E0FF1F10B5024856
:1011800000F01EFA10BDC0460000044070B5040017
:10119000FFF7F4FF0500FFF7F1FF01002800FFF75C
:1011A000C7FFA042F7D970BD10B5FFF7CBFFFFF71F
:1011B0009DFF002010BD0000F7B51C4D040000216C
:1011C000280000F007FA03222B7838201A408023E9
:1011D000A1795B42C900134301400B43DBB2144ABF
:1011E0002B701378002BFCD1124A1378114F022B6D
:1011F000FBD1227B0D4D00920022E37A11002800E2
:1012000000F042FB061E0ED10B4B1D4328703B78AD
:10121000032BFCD1A378002B05D0E37862792179E8
:10122000024800F08FFA3000FEBDC0460040064084
:101230000640065206400E5100000813084B80007D
:10124000C2589C200B784005DB011043DBB20370D1
:1012500094235B051A434B785B01DBB21370704734
:101260003023000070B58B7A05000C00012B14D1DF
:10127000097962794B1E9941531E9A41A379C9009D
:10128000581E8341E079920001435B0011431943EA
:101290000F4BAA00D05800F03BFB210028000B3177
:1012A000FFF7CCFFA37A227A617A0A4800F0DAFAD3
:1012B000A37A012B06D1E37A002B03D0064A1378D8
:1012C000002BFCD02268054B00201A6070BDC04680
:1012D00030230000004006400640865008E1FF1F12
:1012E0004309084A9B009918F822C30512051A40C1
:1012F00080235B0513431F2210401E3A82400B439C
:101300001A6070472880044037B5C378817800930D
:1013100000230500074C1A00200000F001FB2B7889
:10132000054A1B041360054B1C436B789B04236028
:1013300037BDC046007004400480045800000819FE
:1013400010B5054800F06CFA044B1968C9B20131B8
:10135000FFF7F2F810BDC0460040064044801C5E16
:1013600010B5FFF7EDFF034B1968C9B20131FFF764
:10137000E3F810BD44801458094B10B51B68DBB26C
:10138000002B06D0012B08D1064800F005FA4008D2
:1013900004E0044800F086F900E0002010BDC046DB
:1013A00004800458004006409C230020064A5B0548
:1013B000126882B013431B780192834201D0034B21
:1013C000186802B07047C0463023000008E1FF1FD4
:1013D0000A4B10B51B68DBB2022B07D0032B08D0D9
:1013E0000020012B08D1FFF7C7FF05E0FFF7DCFF66
:1013F00002E0034800F0F4F910BDC04604800C5D23
:1014000000400640030010B50020022B01D8FFF772
:10141000A7FF10BD8022024BD2001A607047C04661
:101420003480045510B5024B185CFFF759FF10BD0E
:1014300034230000F0B50F0087B09100029038000F
:101440001400FFF779F8810006003800FFF774F800
:10145000231A0193844201D2031B019305252B001B
:10146000634304930423039304993800FFF764F85B
:1014700083B21900380069430593FFF75DF8231A1A
:10148000844200D2031B019A934202D8059E019325
:101490000395049B01351B190493212DE4D164218C
:1014A0002000FFF749F803234343019A02209A42A0
:1014B0001BD2039B043B032B05D88022029B120501
:1014C0000B3313431870812200200299039B5205AD
:1014D0000A31013B1143DBB20B70029B1A43330A02
:1014E000DBB21370029BF6B25E7007B0F0BD8422CF
:1014F00010B501230C000230520502439C431470C6
:101500008022520510430B40037010BD10B59C247F
:10151000031D64058A182343914206D01C78002CD1
:10152000FCD00C780131C471F6E710BDF0B58C2306
:10153000050000202E1D5B058A18334391420FD011
:101540009424640534432778002FFCD0EC790C7088
:101550001C78002C02D00820187007300131EDE70C
:10156000F0BD37B5022401AD01912B7801685B0015
:1015700023401A006B78A340241923401343BE2252
:101580009143AA780434D20022400B431343302104
:101590001A00EB781B010B401343036037BD37B5CE
:1015A00004220B1C0D009B0013401C0074326B0BBB
:1015B000134089052343890F1943416037BD00005B
:1015C000034B0C3018430023036000687047C0468B
:1015D000000078108822431C520513431B78002B0F
:1015E00006D0842306305B0518430378002BFCD01B
:1015F0007047D14010B50C00002B13D0072A10D82B
:101600001000FEF785FF04040404040406084C09D6
:1016100008E0142100E00C212000FEF78DFF0400FB
:1016200000E00024200010BD882313B55B050343B0
:101630001978C9B200290ED1084B094C03431A7816
:10164000431C23431B7800910649D2B2DBB20968E0
:10165000FFF7CFFF01E0044B186816BD00009011A2
:101660000000081208E1FF1F04E0FF1F30B5002A48
:1016700005D0802400202402A14206D90BE0064CAC
:10168000064D0C191000AC4205D85B009A18044BAB
:101690005200D05A484330BDEE85FFFF851E000042
:1016A00038230000942210B5831D520513431B7884
:1016B0000400002B01D0002010E0FFF7B5FF011E51
:1016C000F9D09C220648E31C52051A4303431278C2
:1016D0001B78D2B2DBB22000FFF7C8FF10BDC046B6
:1016E00000008812030030B5154A083313431B78F5
:1016F0008B4223D08023441C5B051C432278002AA4
:1017000008D1037A0E324900114001329343194344
:10171000017213E000222270821D1A431378002BFD
:10172000FCD10E25037A490029400135AB4319430A
:101730000123017223701378012BFCD130BDC04608
:1017400000009010F7B580240093831D06000F0061
:10175000451C64050193012913D11100FFF7C2FF55
:10176000B31D234325431C002F702378012BFCD18C
:10177000032233789343013A1343009A1A43327099
:10178000F7BD002325432B70831D23431C002378C2
:10179000002BFCD1ECE70000942270B50400831DFF
:1017A000520513431878231DC0B2002805D1982292
:1017B00052051A431278002A0FD081256D052B435C
:1017C0001978064B01311868C9B2FEF7B5FE053429
:1017D0002C4323781833DBB2584370BD08E1FF1F58
:1017E000842252050243030000201278824210D066
:1017F00080215A1C49050A431278824202D1054BC6
:10180000186806E004480833044A03431B7810684C
:10181000D840704704E0FF1F0000901008E0FF1F51
:1018200010B50E49821D0A4312780300D2B200207F
:10183000032A12D81000FEF76BFE060A0E021800EB
:10184000FFF7AAFF09E01800FFF72CFF05E01800DA
:10185000FFF7C6FF01E0024B186810BD0000081139
:1018600008E1FF1F30B5042544789B002B40383534
:10187000AC4323430824D2002240090128341A43F0
:1018800021401143417030BD8422F8B51D0006ABE4
:101890001F785205431C1343002204001A701A4B90
:1018A000803203431A70194B861D33431A78022A7B
:1018B000FCD12000FFF78EFE982100224905231D50
:1018C0000B431A70631D19430A7094225205324368
:1018D0001378002BFCD120791F3398431D4005431A
:1018E000257160791F4098430743213367710B705E
:1018F0001378002BFCD098235B051E433378002B14
:10190000FCD00020F8BDC0460000081300000811FC
:101910000F22037893431943C9B201707047000046
:101920006B46E0221B78D2021B04134009071943BF
:10193000014BC1507047C0464410000070B5040010
:1019400008001101FEF7F8FD83B25A1E074D92B24E
:101950000221AA4207D881220021520522431B0AF4
:10196000C0B213706070080070BDC046FE1F00005A
:10197000842210B501230C000230520502439C431F
:1019800014708022520510430B40037010BD30B517
:101990009C24031D64058A182343914207D01C78B8
:1019A000002CFCD00C7805790131C471F5E730BD0D
:1019B000F0B503008C2400201E1D64058A183443F2
:1019C000914210D094256D0535432F78002FFCD01F
:1019D0001D79DD790D702578002D02D01879D87920
:1019E0000F200131ECE7F0BD014B18687047C0468D
:1019F0006CE0FF1F084B10B50400002B02D0002143
:101A000000E000BF054B1868836A002B00D09847A0
:101A1000200000F06FFCC0460000000048230000DA
:101A20000E4B70B500251E000D4CE41AA410A54203
:101A300004D0AB00F35898470135F8E700F0A0FC5C
:101A4000084B00251E00084CE41AA410A54204D03F
:101A5000AB00F35898470135F8E770BDA0230000AC
:101A6000A0230000A0230000A4230000030082188C
:101A7000934202D019700133FAE7704770B5050040
:101A8000002944D00C1F2368002B00DAE41828003A
:101A900000F0E4F81E4A13681100002B02D16360C5
:101AA000146031E0A3420DD92268A018834203D10B
:101AB00018685B688218226063600C6024E0A242B0
:101AC00003D813005A68002AF9D11E689819A04259
:101AD0000BD12168711858181960824214D110680E
:101AE0005268411819605A600EE0A04202D90C23D6
:101AF0002B6009E021686018824203D110685268A7
:101B00004118216062605C60280000F0A8F870BD98
:101B100010E1FF1F032370B5CD1C9D43083506005F
:101B20000C2D01D20C2501E0002D01DBA94202D9C8
:101B30000C23336048E0300000F090F8234B1C6821
:101B40001A002100002913D00B685B1B0DD40B2B4E
:101B500002D90B60CC181EE08C4202D1636813607E
:101B60001AE04B6863600C0016E00C004968E9E776
:101B7000174C2368002B03D1300000F02BF82060B5
:101B80002900300000F026F8431C18D00323C41CA1
:101B90009C43A0420DD12560300000F060F8200089
:101BA00007220B30231D9043C31A0ED05A42E25035
:101BB0000BE0211A300000F00DF8431CEBD10C2390
:101BC0003000336000F04BF8002070BD10E1FF1FC3
:101BD0000CE1FF1F002370B5064C050008002360D0
:101BE000FEF720FE431C03D12368002B00D02B609E
:101BF00070BDC04614E1FF1F0CB430B5164B9DB04C
:101C00000C1E1D6804DA8B2301202B6040421DE06E
:101C1000822302A99B008B810023029008619C42D1
:101C200000D0631E8B604B6101235B42CB81209A05
:101C300021AB2800019300F075F8431C01DA8B23D7
:101C40002B60002C02D00023029A13701DB030BC10
:101C500008BC02B01847C0466CE0FF1F70477047D1
:101C6000F0B58E6885B007000C00039201939E4288
:101C700043D890238A89DB001A423ED003250969A4
:101C8000236801985B1A029363695D43EB0F5D194A
:101C9000029B6D1001331B18AB4200D91D00530588
:101CA00010D529003800FFF735FF061E14D0029A20
:101CB000216900F0D0FAA289194B13408022134306
:101CC000A38112E02A00380000F0E3FA061E0CD1CE
:101CD00021693800FFF7D2FE0C23402201203B602F
:101CE000A38940421343A38117E0029B2661F618A3
:101CF00026606561019EED1AA560019BB34200D28A
:101D00001E0032000399206800F0AEFA0020A3689C
:101D10009B1BA36023689E19266005B0F0BDC046DA
:101D20007FFBFFFFF0B59FB0029005938B890F00FA
:101D300016001B0610D50B69002B0DD14021FFF7B3
:101D4000E9FE38603861002804D10C23029A01387A
:101D50001360D8E040237B61002306AD6B61203324
:101D60006B761033AB7634002378002B03D1A31BA2
:101D7000049312D003E0252BF9D00134F4E7A31B20
:101D8000320039000298FFF76BFF431C00D1B4E02A
:101D90006A69049B944663446B612378002B00D1ED
:101DA000ABE00122002352426A6002A95432521869
:101DB00001342B60EB60AB601370AB65534E217840
:101DC0000522300000F03CFA002807D00123801BD8
:101DD00083402A68013413432B60EFE72B68DA064F
:101DE00004D55322202102A8121811701A0704D515
:101DF00053222B2102A81218117022782A2A03D00C
:101E0000099B00200A210EE0059A111D1268059118
:101E1000002A01DB099204E05242EA6002221343E5
:101E20002B6001340BE02278303A092A04D84B4366
:101E300001349B180120F6E7002800D0099323788D
:101E40002E2B1ED163782A2B0AD1059B02341A1D32
:101E50001B680592002B01DA01235B42079310E017
:101E600000230A201A0001346B60217830390929D7
:101E700004D84243013452180123F6E7002B00D066
:101E80000792234E21780322300000F0D9F9002870
:101E900006D04023801B83402A68013413432B6003
:101EA000217806221B48661C297600F0C9F9002813
:101EB00012D0194B002B06D10722059B0733934301
:101EC0000833059314E005AB00933A00134B290047
:101ED000029800E000BF07E005AB00933A000F4B0B
:101EE0002900029800F08AF80390039B013304D084
:101EF0006B69039A9B186B6135E7BB890B985B068E
:101F000001D5012040421FB0F0BDC0464C23000067
:101F1000522300005623000000000000611C000056
:101F2000F7B5170001938A680B6900900C00934283
:101F300000DA130022003B6043321278002A01D0FD
:101F400001333B6023689B0602D53B6802333B604C
:101F5000062523681D401ED0230043331B785A1EDC
:101F60009341226892061CD53020E1184331087055
:101F700021005A1C45310978A218433202331170EE
:101F80000FE022000123193201990098089EB04702
:101F9000431C0ED00135E3683A689B1A9D42F0DB82
:101FA000DAE72200019943320098089DA847431CB4
:101FB00002D10120404220E006232068E1683A680F
:101FC00003400025042B03D18D1AEB43DB171D4082
:101FD000A3682269934201DD9B1AED180027BD42D8
:101FE0000AD0220001231A3201990098089EB047B6
:101FF000431CDED00137F2E70020FEBDF0B58BB008
:1020000006920A0043320793059004920A7E0C0060
:10201000109B6E2A00D1ABE011D8632A22D009D8D8
:10202000002A00D1B5E0582A00D0C5E045310A7039
:10203000814A4FE0642A1DD0692A1BD0BCE0732A74
:1020400000D1AAE009D86F2A29D0702A00D0B3E0C5
:10205000202209680A43226037E0752A1FD0782AB7
:1020600033D0A9E00E001A684236111D19601368BA
:102070003370A4E021681A68080606D4490604D51E
:10208000111D19600023D55E02E0111D196015684D
:10209000002D3BDA2D23049A6D42137036E021683F
:1020A0001A68080606D4490604D51568111D19607A
:1020B000ADB202E0111D196015685F4B227E0393DB
:1020C00008276F2A1DD00A271BE0220078214532FD
:1020D00011705A4A19680392081D226818600D6829
:1020E000100602D4500600D5ADB2D30702D5202386
:1020F0001A4322601027002D03D1202322689A431F
:1021000022602300002243331A7002E00A274A4B60
:1021100003936368A360002B09DB042221689143C9
:102120002160002D05D1049E002B11D07BE0002DF5
:1021300079D0049E28003900FEF784FA039B013E03
:102140005B5C280033703900FEF7F6F9051EF1D10B
:10215000082F09D12368DB0706D5636822699342FB
:1021600002DC3023013E3370049B9B1B23612BE078
:1021700009681A68080607D4490605D5111D1960B3
:102180001368A28A1A8004E0111D1960136862693D
:102190001A600023049E236116E01A68111D19605D
:1021A000166800216268300000F04AF8002801D06B
:1021B000801B6060636803E02600423632700123B2
:1021C00023610023049A1370079B09AA009321003E
:1021D000069B0598FFF7A4FE431C02D10120404254
:1021E00027E02369320006990598079DA847431CFC
:1021F000F4D0236800259B070FD4099BE068984220
:1022000017DA180015E02200012319320699059803
:10221000079EB047431CE1D00135E368099A9B1A39
:102220009D42F0DBE9E72600039B42361B783370C2
:102230008EE70BB0F0BDC0465D2300006E230000AA
:10224000C9B28218904204D003788B4202D0013088
:10225000F8E700207047002310B59A4203D0CC5C09
:10226000C4540133F9E710BD10B5884202D98B1868
:10227000984201D3002305E09B1A013A08D3995CE8
:102280008154FAE7934203D0CC5CC4540133F9E79C
:1022900010BDF8B506000C001500002904D111008E
:1022A000FFF738FC040018E0002A03D1FFF7E6FB33
:1022B0002C0012E000F013F885420ED929003000FE
:1022C000FFF728FC071E07D021002A00FFF7C3FFF5
:1022D00021003000FFF7D2FB3C002000F8BD0B1FAF
:1022E0001A68101F002A04DA891804390B68D018FC
:1022F00004387047FEE7C0460000000000B006400A
:1023000000C00640256400496E697469616C697398
:1023100065640D0A00546F7563683A00800001001F
:1023200000000300000000010000010001030103A0
:1023300000500640FF6B6C008002DC020005B8050F
:1023400080079508000A710B0CE0FF1F232D302B2E
:102350002000686C4C0065666745464700303132A6
:1023600033343536373839414243444546003031FD
:10237000323334353637383961626364656600005C
:10238000F8B5C046F8BC08BC9E467047F8B5C046D4
:08239000F8BC08BC9E46704732
:08239800D8E0FF7F0100000006
:0423A00039040000FC
:0423A4001104000020
:1023A800000040010080000000093D00000000001E
:1023B8000000000000000000000000000000000015
:1023C8000000000000000000000000000000000005
:1023D80000000000000000000000000000000000F5
:1023E80000000000000000000000000000000000E5
:1023F80000000000000000000000000000000000D5
:102408000000000000000000000000000CE0FF1FBA
:0424180000000000C0
:04000003000004E90C
:00000001FF
