S01700006275696C642F62696C6C6E69636B792E737265630D
S113000000600020C1000000890600008B0600008B
S113001000000000000000000000000000000000DC
S11300200000000000000000000000008D06000039
S113003000000000000000008F0600009106000090
S11300409506000097060000990600009B06000034
S1130050930600009D0600009F060000A106000014
S1130060A3060000A5060000A7060000A9060000DC
S1130070AB060000AD060000AF060000B1060000AC
S1130080B3060000B5060000B7060000B90600007C
S1130090BB060000BD060000BF060000C10600004C
S11300A0C3060000C5060000C7060000C90600001C
S11300B0CB060000CD060000CF060000D1060000EC
S11300C00749084A084B9B1A05DD002408591051BA
S11300D004349C42FADB0548804705480047000089
S11300E088070000C0E0FF1F28E1FF1FE9040000AB
S10700F07104000093
S1130400FFFFFFFFFFFFFFFFFFFFFFFFFEFFFFFFF9
S113041010B5064C2378002B07D1054B002B02D0D6
S1130420044800E000BF0123237010BD28E1FF1F32
S1130430000000007C070000084B10B5002B03D01F
S11304400749084800E000BF07480368002B00D1B3
S113045010BD064B002BFBD09847F9E700000000C5
S11304602CE1FF1F7C07000028E1FF1F00000000B3
S1130470164B002B00D1144B9D46402292029A1A2F
S1130480924600218B460F461348144A121A00F074
S11304905DF90F4B002B00D098470E4B002B00D07A
S11304A098470020002104000D000D48002802D0C8
S11304B00C4800E000BF00F023F92000290000F000
S11304C0C5F800F007F9C0460000080000600020ED
S11304D0000000000000000028E1FF1F44E1FF1FAE
S11304E000000000000000008822002110B58024D4
S11304F0214B2248520199501A58A40022431A5001
S11305001F48204A9850204B204A986C1040986409
S1130510D86C0240DA6440221D4B587802402420F3
S113052002435A701B4A5C3010709A221A70D878B1
S11305307B3A0240DA7001221A7159710F329979AB
S11305401142FCD10C219A790A40082AFBD140219E
S11305500F4A517134399A790A40082AFBD138324A
S113056099791142FCD01A21094A11700E399A79ED
S11305700A400C2AFBD110BD007004403810000062
S1130580000001104410000000900440FFF8FFFE3A
S11305900040064000500640802030B50E4A0F4B04
S11305A08001D158802501438020D1500C4940005E
S11305B00C4C48676169AD05294361618024D158B9
S11305C064012143D1502021074B084A58615369E3
S11305D00B43536130BDC046007004403810000026
S11305E000D0044000F10F4000C00440C0F00F40B0
S11305F0002382B00093009A632A0CD80193019AD5
S1130600632A04D8C046019A01320192F7E7009A9E
S113061001320092EFE702B070470000002382B07D
S113062009490093009A8A420CD80193019A632ADB
S113063004D8C046019A01320192F7E7009A0132C8
S11306400092EFE702B070471F4E0000F8B5802417
S11306500B4DFFF7A1FF6B68A40523436B60094BA7
S113066020271E005A685A60EC60F760FFF7D6FF37
S1130670EC60F760FFF7D2FFFFF7BAFFF4E7C0467C
S113068000F10F40C0F00F40FEE7FEE7FEE7FEE793
S1130690FEE7FEE7FEE7FEE7FEE7FEE7FEE7FEE72E
S11306A0FEE7FEE7FEE7FEE7FEE7FEE7FEE7FEE71E
S11306B0FEE7FEE7FEE7FEE7FEE7FEE7FEE7FEE70E
S11306C0FEE7FEE7FEE7FEE7FEE7FEE7FEE7FEE7FE
S11306D0FEE7C046084B10B50400002B02D00021F1
S11306E000E000BF054B1868836A002B00D09847D0
S11306F0200000F033F8C046000000007807000036
S11307000E4B70B500251E000D4CE41AA410A54232
S113071004D0AB00F35898470135F8E700F020F80F
S1130720084B00251E00084CE41AA410A54204D06E
S1130730AB00F35898470135F8E770BD20E1FF1F7F
S113074020E1FF1F20E1FF1F24E1FF1F03008218A7
S1130750934202D019700133FAE77047FEE7C046AE
S1130760F8B5C046F8BC08BC9E467047F8B5C0460C
S1130770F8BC08BC9E467047C0E0FF1F00000000A4
S10B0780F0FCFF7F0100000002
S1130788000000000000000000000000000000005D
S1130798000000000000000000000000000000004D
S11307A8000000000000000000000000000000003D
S11307B8000000000000000000000000000000002D
S11307C8000000000000000000000000000000001D
S11307D8000000000000000000000000000000000D
S10B07E83904000011040000B3
S90300C13B
