:1000000000600020E9040000F9040000F904000089
:1000100000000000000000000000000000000000E0
:10002000000000000000000000000000F9040000D3
:100030000000000000000000F9040000F9040000C6
:10004000F9040000F9040000F9040000F9040000BC
:10005000F9040000F9040000F9040000F9040000AC
:10006000F9040000F9040000F9040000F90400009C
:10007000F9040000F9040000F9040000F90400008C
:10008000F9040000F9040000F9040000F90400007C
:10009000F9040000F9040000F9040000F90400006C
:1000A000F9040000F9040000F9040000F90400005C
:1000B000F9040000F9040000F9040000F90400004C
:10040000FFFFFFFFFFFFFFFFFFFFFFFFFEFFFFFFFD
:1004100010B5064C2378002B07D1054B002B02D0DA
:10042000044800E000BF0123237010BD00E4FF1F5B
:1004300000000000D49D0000084B10B5002B03D035
:100440000749084800E000BF07480368002B00D1B7
:1004500010BD064B002BFBD09847F9E700000000C9
:1004600004E4FF1FD49D00004CE3FF1F00000000C8
:10047000164B002B00D1144B9D46402292029A1A33
:10048000924600218B460F461348144A121A07F071
:10049000AEFD0F4B002B00D098470E4B002B00D029
:1004A00098470020002104000D000D48002802D0CC
:1004B0000C4800E000BF07F061FD2000290000F0BB
:1004C000DFFB07F035FDC04600000800006000209B
:1004D000000000000000000000E4FF1FDCEAFF1F36
:1004E000000000000000000072B601F0C3FC01F043
:1004F00099FD62B6FFF7BCFF00480047F904000011
:100500000023C25C0133002AFBD1581E7047000053
:10051000002243088B4274D303098B425FD3030A42
:100520008B4244D3030B8B4228D3030C8B420DD355
:10053000FF22090212BA030C8B4202D312120902E3
:1005400065D0030B8B4219D300E0090AC30B8B4221
:1005500001D3CB03C01A5241830B8B4201D38B03CF
:10056000C01A5241430B8B4201D34B03C01A524174
:10057000030B8B4201D30B03C01A5241C30A8B42B7
:1005800001D3CB02C01A5241830A8B4201D38B02A2
:10059000C01A5241430A8B4201D34B02C01A524146
:1005A000030A8B4201D30B02C01A5241CDD2C309B8
:1005B0008B4201D3CB01C01A524183098B4201D334
:1005C0008B01C01A524143098B4201D34B01C01A1F
:1005D000524103098B4201D30B01C01A5241C30897
:1005E0008B4201D3CB00C01A524183088B4201D306
:1005F0008B00C01A524143088B4201D34B00C01AF2
:100600005241411A00D20146524110467047FFE75D
:1006100001B5002000F0F0F802BDC0460029F7D077
:1006200076E7704703460B437FD4002243088B4292
:1006300074D303098B425FD3030A8B4244D3030B69
:100640008B4228D3030C8B420DD3FF22090212BA2E
:10065000030C8B4202D31212090265D0030B8B42AA
:1006600019D300E0090AC30B8B4201D3CB03C01A94
:100670005241830B8B4201D38B03C01A5241430B6F
:100680008B4201D34B03C01A5241030B8B4201D35F
:100690000B03C01A5241C30A8B4201D3CB02C01ACA
:1006A0005241830A8B4201D38B02C01A5241430A42
:1006B0008B4201D34B02C01A5241030A8B4201D331
:1006C0000B02C01A5241CDD2C3098B4201D3CB01D8
:1006D000C01A524183098B4201D38B01C01A524187
:1006E00043098B4201D34B01C01A524103098B428B
:1006F00001D30B01C01A5241C3088B4201D3CB0076
:10070000C01A524183088B4201D38B00C01A524158
:1007100043088B4201D34B00C01A5241411A00D208
:1007200001465241104670475DE0CA0F00D0494271
:10073000031000D34042534000229C4603098B42E1
:100740002DD3030A8B4212D3FC22890112BA030A69
:100750008B420CD3890192118B4208D389019211EB
:100760008B4204D389013AD0921100E08909C30970
:100770008B4201D3CB01C01A524183098B4201D372
:100780008B01C01A524143098B4201D34B01C01A5D
:10079000524103098B4201D30B01C01A5241C308D5
:1007A0008B4201D3CB00C01A524183088B4201D344
:1007B0008B00C01A5241D9D243088B4201D34B005F
:1007C000C01A5241411A00D20146634652415B10A1
:1007D000104601D34042002B00D549427047634682
:1007E0005B1000D3404201B5002000F005F802BDC7
:1007F0000029F8D016E770477047C04680B584B02E
:1008000000AF7860114B1B68002B02D10F4B104AD0
:100810001A600E4B1B68FB600C4B1A687B68D21881
:100820000C4B9A4207D907F07DFB03000C221A609B
:1008300001235B4206E0054B1A687B68D218034B24
:100840001A60FB681800BD4604B080BD1CE4FF1FA1
:10085000E0EAFF1FE0EEFF1F80B500AF1849184A1D
:10086000184BD358802292011343164A8B50164BD3
:10087000802252005A67154B144A5269802189051B
:100880000A435A610E490E4A0E4BD3588022520138
:1008900013430C4A8B500E4B802252005A610D4B71
:1008A0000C4A526920210A435A61084B074A526890
:1008B000802189050A435A60C046BD4680BDC046B6
:1008C000007004403810000000D0044000F10F40D8
:1008D00000C00440C0F00F4080B500AF4D4B1B7806
:1008E000012B2DD002DC002B05D088E0022B45D057
:1008F000032B65D083E0484B01229A71474B474A4E
:100900009268802189050A439A60434B0222DA717A
:10091000414B00221A72424B1B785BB2DBB20133AF
:10092000DBB25AB23E4B1A703D4B1B785BB2642B64
:100930005EDD384B1B780133DAB2364B1A7057E064
:10094000354B00229A71344B0022DA71324B02226D
:100950001A72344B1B785BB2DBB20133DBB25AB292
:10096000304B1A702F4B1B785BB2642B42DD294B46
:100970001B780133DAB2274B1A703BE0274B274A2A
:100980005268802189050A435A60234BFE22DA719E
:10099000214B00221A72224B1B785BB2DBB2013B67
:1009A000DBB25AB21E4B1A701D4B1B785BB2002B88
:1009B00022DA184B1B780133DAB2164B1A701BE09F
:1009C000154B0022DA71144BFE221A72154B1B785C
:1009D0005BB2DBB2013BDBB25AB2124B1A70114B65
:1009E0001B785BB2002B09DA0A4B00221A7005E073
:1009F000C04604E0C04602E0C04600E0C046064BE8
:100A00001868094A0423012101F0E0FFC046BD46F1
:100A100080BDC04630E4FF1F20E4FF1F00F10F40FF
:100A200031E4FF1F32E4FF1F26E4FF1F80B584B0CE
:100A300000AFB9607A600F23FB18021C1A700F23F5
:100A4000FB181B78032B19D0062B1DD0002B00D0D0
:100A50001DE0114B00221A730F4B1B680F4A110047
:100A6000180001F0E1FF031E10D10B4B1A680A4B6E
:100A70009B881900100000F04BFA07E0064B01229A
:100A80001A73FFF729FF02E0C04600E0C046C046E7
:100A9000BD4604B080BDC04620E4FF1F24E4FF1F14
:100AA00080B586B000AFBA607B600F23FB18021CD4
:100AB0001A700C23FB180A1C1A801623FB1800223C
:100AC0001A701723FB180F22BA18127801210A4056
:100AD0001A700F23FB181B78042B16D10C23FB185C
:100AE0001B88424A934210D17B681B6801330CD0AB
:100AF0003F4B1B7B002B04D03B6A002B01D0FFF740
:100B0000EBFE1623FB181B786CE07B6800221A6052
:100B10000F23FB181B780B2B61D89A00354BD31889
:100B20001B689F46BB68344A1A607B6804221A60BF
:100B300055E01723FB1800221A7014E01723FB1846
:100B40001A78BB6819681723FB181B78CB1819781B
:100B5000274B9B180A1C9A711723FB181A78172326
:100B6000FB1801321A701723FB181B78032BE5D9E9
:100B700035E01723FB181B7808331A001C4BD318D9
:100B80009A1CBB681A607B6801221A6027E0172351
:100B9000FB181B780C22BA181288120A92B2D1B232
:100BA000134AD3180A1C9A7219E01723FB181B78F2
:100BB00008331A000E4BD3189A1CBB681A607B6866
:100BC00001221A600BE01723FB181B780C22BA18BD
:100BD0001288D1B2064AD3180A1C9A72C04616234C
:100BE000FB181B781800BD4606B080BDFFFF000053
:100BF00020E4FF1F589A000026E4FF1F80B58AB04A
:100C000000AF194B10220021180007F0F0F93B1D2E
:100C100024220021180007F0EAF9144B180000F014
:100C2000D5FC3B1D124A1A603B1D0F4A5A603B1D02
:100C3000104A1A613B1D0C4A5A613B1D0E4ADA618B
:100C40003B1D2022002199543B1D0C4A9A61064B02
:100C500000229A80044A3B1D1900002001F0FCFD8F
:100C6000C046BD460AB080BD20E4FF1F508F000083
:100C70002D0A0000A10A00006D1200006CE2FF1FA7
:100C800080B500AF00F0B8F905F084FD00F0DAFAA5
:100C9000FFF7E2FDFFF7B2FF05F086FD0123180024
:100CA000BD4680BD90B585B000AF78600C001000E7
:100CB0001900FB1C221C1A70BB1C021C1A703B0082
:100CC0000A1C1A80FB1C1B78212B16D0222B02D069
:100CD000032B22D086E0FB1C08221A70FB1C1A781A
:100CE000504B9200D2583B6A1A60FB1C1B784E4A4C
:100CF000D35C1A007B6A1A608FE0FB1C02221A7018
:100D0000FB1C1A78474B9200D35812331A003B6AE7
:100D10001A607B6A09221A607FE03B001B88002B67
:100D200009D1424B1A683B6A1A60404B1B791A0082
:100D30007B6A1A6071E00F23FB1800221A700E23E1
:100D4000FB1801221A701FE0384B99680F23FB181B
:100D50001A7813005B009B189B00CB181B883A0085
:100D600012889A4209D1BB1C1B78022B12D80E2381
:100D7000FB18BA1C12781A700CE00F23FB181A78B3
:100D80000F23FB1801321A700F23FB181B78002B5E
:100D9000DAD000E0C046254B99680F23FB181A787B
:100DA00013005B009B189B00CB185A680E23FB189E
:100DB0001B789B00D3181A683B6A1A601B4B996812
:100DC0000F23FB181A7813005B009B189B00CB18AD
:100DD0009A680E23FB181B78D3181B781A007B6ABD
:100DE0001A601AE0FB1C1B78072B13D8FB1C1A781F
:100DF0000C4B9200D2583B6A1A60FB1C1B780A4AC3
:100E0000D35C1A007B6A1A603B6A1B68002B03D113
:100E1000CE2303E0CE2301E0C04600231800BD46E8
:100E200005B090BD1CE2FF1F10E2FF1F60E2FF1F34
:100E300080B584B000AFF8607A600B23FB180A1C01
:100E40001A700B23FB181B78002B08D10B23FB18FF
:100E50001B78054AD25C7B681A70002300E0CE2321
:100E60001800BD4604B080BD44E4FF1F80B582B0C9
:100E700000AF786008001100FB1C021C1A70BB1C3C
:100E80000A1C1A70FB1C1B78002B07D1FB1C1B785B
:100E9000054AB91C0978D154002300E0CE2318007C
:100EA000BD4602B080BDC04644E4FF1F80B582B09D
:100EB00000AF78600A00FB1C1A7000231800BD46C2
:100EC00002B080BD80B584B000AFF8607A600B23BB
:100ED000FB180A1C1A700B23FB181B78002B00D080
:100EE0000BE0084B01221A70064B074A043303CA71
:100EF00003C3064A7B681A60C04600231800BD463B
:100F000004B080BD34E4FF1F08E1FF1F10E1FF1FA4
:100F100080B58EB000AF78600A00BB1C1A80202319
:100F2000FB18324A1A60324A0C23FB181A6033E06D
:100F30002023FB181B685B78052B22D1BB1C1B8868
:100F4000022B0FD12023FB181B6807229A71202344
:100F5000FB181B6808221A712023FB181B6800224B
:100F60005A710EE02023FB181B6808229A71202377
:100F7000FB181B6808221A712023FB181B6800222B
:100F80005A712023FB181A682023FB181B681B7852
:100F9000D2182023FB181A602023FB181A680C2390
:100FA000FB181B689A42C3D300237B6315E0BB1C6C
:100FB0001B88022B07D10F4A7B6BDB00D31804334D
:100FC00008221A6006E00B4A7B6BDB00D31804335F
:100FD00008221A607B6B01337B637B6B002BE6DDA1
:100FE00000231800BD460EB080BDC04630E1FF1F93
:100FF00052E1FF1F00E1FF1F80B582B000AFFB1D73
:1010000000221A7009E0FB1D1B78180005F076FF1E
:10101000FB1D1A78FB1D01321A70FB1D1B78042B77
:10102000F1D900F0EDF800F00DF9C046BD4602B070
:1010300080BDC04680B584B000AFF860B960FB1DCC
:101040001A70BB681F2B05D90A4B0B4A0B48FF21AE
:1010500006F03EFFBB689B00FA68D3181A00084BE5
:101060001343FA1D127812021A60C046BD4604B03E
:1010700080BDC046688F0000889A0000748F000011
:101080000000101480B582B000AF78607B68002B40
:1010900000D00CE0084B022201211800FFF7CAFF24
:1010A000054B022202211800FFF7C4FFC046C046CC
:1010B000BD4602B080BDC0460090044080B584B0FB
:1010C00000AFF860B960FB1D1A70BB681F2B05D913
:1010D0000A4B0B4A0B48FF2106F0FAFEBB689B0047
:1010E000FA68D3181A00084B1343FA1D127812023B
:1010F0001A60C046BD4604B080BDC04610900000D6
:10110000B09A00001C9000000000101480B584B05C
:1011100000AFF860B960FB1D1A70FB68064A944680
:1011200063441A00054B1343FA1D127892061A60A5
:10113000C046BD4604B080BD041000000000081D7C
:1011400080B582B000AF78600A00FB1C1A70FB1CEF
:101150001A787B6803481900FFF7D8FFC046BD46E0
:1011600002B080BD0070044080B582B000AF7860EE
:101170000A00FB1C1A707B68FA1C12781A70C046B1
:10118000BD4602B080BDC04680B584B000AF3B0014
:10119000180010231A00002106F029FF3B00084A1E
:1011A0001A603B0002225A723B0001229A723B00F5
:1011B0001900002005F02AFCC046BD4604B080BDE1
:1011C00000127A0080B582B000AF78607B6810337F
:1011D000180005F091FD7B680E331900002005F022
:1011E0008FFC7B68180005F0A9FB034B034A1A60CB
:1011F000C046BD4602B080BD80E2FF1F006CDC022D
:1012000080B500AF0C4B2A211800FFF7ADFF0B4B48
:10121000002212211800FFF751FF084B0022132172
:101220001800FFF74BFFFFF7AFFF054B1800FFF764
:10123000C9FFC046BD4680BD00E0074000900440A5
:101240009C9A000080B500AF0020FFF71BFF012132
:101250000020FFF775FFE1235B020F221900002039
:1012600000F0BAF8C046BD4680BDC04680B584B027
:1012700000AF0200FB1D1A700F23FB1800221A702A
:10128000FB1D1B78002B03D00F23FB1801221A70C3
:101290000F23FB181B781800BD4604B080BDC04664
:1012A00080B582B000AF78607B6803331A008C236E
:1012B0005B05134308221A70C046BD4602B080BDCC
:1012C00080B582B000AF78607B6803331A00882352
:1012D0005B05134304221A70C046BD4602B080BDB0
:1012E00080B582B000AF78600A00FB1C1A707B6882
:1012F00002331A0090235B0513431A00FB1C1B7872
:101300001B01DBB21370C046BD4602B080BDC046B3
:1013100080B582B000AF78600A00FB1C1A707B6851
:101320001A0094235B0513431A00FB1C1B785B0116
:10133000DBB21370C046BD4602B080BD80B582B03E
:1013400000AF78607B6803331A008C235B0513437E
:1013500008221A70C046BD4602B080BD80B582B07A
:1013600000AF78607B6803331A0088235B05134362
:1013700004221A70C046BD4602B080BD80B582B05E
:1013800000AF78600A00FB1C1A707B6802331A00F9
:1013900090235B0513431A00FB1C1B781B01DBB277
:1013A0001370C046BD4602B080BDC04680B582B055
:1013B00000AF78600A00FB1C1A707B681A00942347
:1013C0005B0513431A00FB1C1B785B01DBB2137037
:1013D000C046BD4602B080BD90B58DB000AFF8608C
:1013E000B960FB1D1A704B4B1B78002B01D00323F7
:1013F0008CE0484BFA1D12781A70FB68DAB2454B44
:101400005A70FB1D1B780F2B3DD0102B77D1142366
:10141000FB18414A13CA13C31423FB18FA6892003D
:10142000D358FB623B4BFA6A5A60FB68180005F020
:10143000ADFDFB68180005F04BFD0300BB62BA6808
:10144000B96AFB6A180006F037FCFB6A0021180035
:10145000FFF746FFFB6A0021180006F065FCFB6AF7
:1014600000211800FFF754FFFB6A1800FFF718FF70
:10147000FB6A1800FFF724FF264B284A9A60254B89
:10148000274ADA603DE0274B3B61FB689B00302236
:101490009446BC446344203B1B687B621D4B7A6AC4
:1014A0005A60FB68180005F04FFDFB68180005F056
:1014B000DBFC03003B62BA68396A7B6A180005F0FE
:1014C0000BFE7B6A00211800FFF758FF7B6A0021A2
:1014D000180005F0ABFE7B6A00211800FFF766FFDD
:1014E0007B6A1800FFF72AFF7B6A1800FFF736FFB8
:1014F000084B0D4A9A60074B0C4ADA6001E0012361
:1015000004E0FB68DAB2034B5A7000231800BD46B2
:101510000DB090BD48E4FF1FB8900000E17D0000D1
:10152000297E000000A0064079720000C172000010
:1015300090B585B000AFF860B9607A60BB68002BE9
:1015400002D101235B4218E0FB68012B05D0FB6848
:10155000022B02D001235B420FE00A4B1B78002BC9
:1015600002D101235B4208E0064B9C68054B5B6897
:101570007A68B9681800A0477B681800BD4605B0B6
:1015800090BDC04648E4FF1F90B585B000AFF8603D
:10159000B9607A60FB68002B02D001235B420FE048
:1015A000094B1B78002B02D101235B4208E0064B5C
:1015B000DC68054B5B687A68B9681800A0477B68EF
:1015C0001800BD4605B090BD48E4FF1F0FB480B5BC
:1015D00084B002AF0E4B1B78002B02D101235B427B
:1015E0000FE01423FB183B60386901235A42094974
:1015F0003B6800930300002000F030F803007B609C
:101600007B681800BD4602B080BC08BC04B0184717
:1016100048E4FF1F1916000090B585B000AF786050
:1016200039607B68DAB20F23FB181A700A4B1B78FB
:10163000002B02D101235B4209E0074B9C68064B5B
:101640005B680F22B91801221800A0470023180078
:10165000BD4605B090BDC04648E4FF1F80B5A4B0AC
:1016600004AFF860B9607A603B600023FB617B687F
:101670003B657B68013301D1CD4B7B603B68FB67E9
:101680003FE3FB6C252B08D0F968FA6CBB681000AF
:101690009847FB690133FB6130E35B23FB180122B0
:1016A0001A700023FB6600233B672BE0FB6F0133BE
:1016B000FB67FB6F1B78203B102B1DD89A00BD4B9E
:1016C000D3181B689F46FB6E01221343FB6619E08B
:1016D000FB6E02221343FB6614E0FB6E04221343ED
:1016E000FB660FE0FB6E08221343FB660AE0FB6E0D
:1016F00010221343FB6605E0FB6F013BFB670123F0
:101700003B67C0463B6F002BD0D00023BB66002355
:101710003B671AE0FB6F0133FB67FB6F1B78FB64D1
:10172000FB6C303B092B0AD8BA6E13009B009B1848
:101730005B001A00FB6CD318303BBB6605E0FB6F07
:10174000013BFB6701233B67C0463B6F002BE1D0A9
:1017500006237B65FB6F0133FB67FB6F1B782E2B2A
:1017600023D100237B6500233B671AE0FB6F013325
:10177000FB67FB6F1B78FB64FB6C303B092B0AD8C3
:101780007A6D13009B009B185B001A00FB6CD3184A
:10179000303B7B6505E0FB6F013BFB6701233B674B
:1017A000C0463B6F002BE1D002E0FB6F013BFB67C3
:1017B000FB6F0133FB67FB6F1B78682B04D06C2B2E
:1017C0000DD04C2B1AD015E0FB6F0133FB67FB6F7C
:1017D0001B78682B14D0FB6F013BFB6710E0FB6F9D
:1017E0000133FB67FB6F1B786C2B0BD0FB6F013B4E
:1017F000FB6707E0FB6F013BFB6704E0C04602E0CC
:10180000C04600E0C046FB6F0133FB67FB6F1B78EF
:10181000FB64FB6C583B202B00D963E29A00664BBB
:10182000D3181B689F468823FB181B681A1D882144
:1018300079180A601B68BB611823F9182023F8186F
:101840005B23FB181B7800930A23012200F06AFA3D
:1018500003007B672023FA187B6FD318BB67BB6933
:10186000002B05DA2D237B667B6F01337B6715E048
:10187000FB6E0222134005D02B237B667B6F013366
:101880007B670BE0FB6E0422134005D020237B66B0
:101890007B6F01337B6701E000237B6600233B669F
:1018A000FB6E082213401DD07B6E002B07D0F96819
:1018B0007A6EBB6810009847FB690133FB61012316
:1018C0003B66BA6E1C23F818796F3B1D0293FB68C8
:1018D0000193BB6800930300302000F0A9FABB6EAF
:1018E0007B671EE0FB6E012213401AD1BA6E1C23E7
:1018F000F818796F3B1D0293FB680193BB68009356
:101900000300202000F094FA7B6E002B07D0F968CA
:101910007A6EBB6810009847FB690133FB610123B5
:101920003B663B6E002B00D04CE17B6E002B00D160
:1019300048E1F9687A6EBB6810009847FB6901338B
:10194000FB613FE15B23FB1800221A708823FB1820
:101950001B681A1D882179180A601B687B61142393
:10196000F9182023F8185B23FB181B780093102329
:10197000002200F0D7F903007B672023FA187B6F61
:10198000D318BB6700233B66FB6E0822134030D0A0
:10199000FB6E102213401BD0FA68BB681100302088
:1019A00098475B23FB181B78002B07D0582206E0D2
:1019B000FEFFFF7FC49A0000089B00007822F968B0
:1019C000BB6810009847FB690233FB6101233B664B
:1019D000BA6E1C23F818796F3B1D0293FB680193C4
:1019E000BB6800930300302000F022FABB6E7B67D7
:1019F00032E0FB6E012213402ED1FB6E1022134009
:101A000002D07B6F02337B67BA6E1C23F818796FA4
:101A10003B1D0293FB680193BB68009303002020E9
:101A200000F006FAFB6E1022134015D0FA68BB686E
:101A30001100302098475B23FB181B78002B01D046
:101A4000582200E07822F968BB6810009847FB69CB
:101A50000233FB6101233B66FB6E1022134000D171
:101A6000B2E03B6E002B00D0AEE0FA68BB6811001C
:101A7000302098475B23FB181B78002B01D058229D
:101A800000E07822F968BB6810009847FB690233D0
:101A9000FB617B6F02337B6796E08823FB181B6832
:101AA0001A1D882179180A601B687B611423F918B4
:101AB0002023F8185B23FB181B78009308230022CF
:101AC00000F030F903007B674FE08823FB181B68A8
:101AD0001A1D882179180A601B687B611423F91884
:101AE0002023F8185B23FB181B78009302230022A5
:101AF00000F018F903007B6737E08823FB181B68A8
:101B00001A1D882179180A601B687B618823FB18DD
:101B10001B681A1D882179180A601B687B611423D1
:101B2000F9182023F8185B23FB181B780093102367
:101B3000002200F0F7F803007B6716E08823FB180B
:101B40001B681A1D882179180A601B687B611423A1
:101B5000F9182023F8185B23FB181B7800930A233D
:101B6000002200F0DFF803007B672023FA187B6F68
:101B7000D318BB67FB6E0822134010D0BA6E1C232B
:101B8000F818796F3B1D0293FB680193BB680093C3
:101B90000300302000F04CF9BB6E7B6722E0FB6E47
:101BA000012213401ED1BA6E1C23F818796F3B1D19
:101BB0000293FB680193BB6800930300202000F0B0
:101BC00037F90FE0C0460DE0C0460BE0BB6F5A1E70
:101BD000BA671B781800FA68BB6811009847FB6960
:101BE0000133FB61BB6F1B78002BEFD1FB6E012231
:101BF000134000D17FE0BA6E1C23F818796F3B1DAB
:101C00000293FB680193BB6800930300202000F05F
:101C10000FF970E08823FB181B681A1D88217918BA
:101C20000A601B68DBB2BB64F968BA6CBB68100061
:101C30009847FB690133FB6160E08823FB181B6850
:101C40001A1D882179180A601B68FB65FB6D002B43
:101C500053D0FB6D1800FEF753FC03007B67FB6E4F
:101C6000012213401AD1BA6E1C23F818796F3B1D5C
:101C70000293FB680193BB6800930300202000F0EF
:101C8000D7F80BE0FB6D5A1CFA651B781800FA6850
:101C9000BB6811009847FB690133FB61FB6D1B7842
:101CA000002BEFD1FB6E0122134026D0BA6E1C230D
:101CB000F818796F3B1D0293FB680193BB68009392
:101CC0000300202000F0B4F817E08823FB181B68FD
:101CD0001A1D882179180A601B687B64FA697B6C7D
:101CE0001A600BE0F968FA6CBB6810009847FB6952
:101CF0000133FB6102E0C04600E0C046FB6F0133E8
:101D0000FB67FB6F1B78FB64FB6C002B00D0B8E417
:101D10007B68002B01D0FB6900E03B6D1800BD46DD
:101D200020B080BD80B58CB000AFF860B9607A603B
:101D30003B600023FB61FB68BB61BB695A1CBA6155
:101D400000221A707B68002B32D0BB681B68FB62D4
:101D5000FB6A002B28D1BB6930221A70FB69013362
:101D6000FB6160E03968F86AFEF75CFC03007B61A8
:101D70007B693A685343FA6AD31ABB62BB6A002B89
:101D800004DABB6A3022D31ABB6202E0BB6A30338A
:101D9000BB627B69FB62BB695A1CBA61BA6AD2B288
:101DA0001A70FB690133FB61FB6A002BDAD13AE060
:101DB000BB681B687B627B6A002B31D1BB69302218
:101DC0001A70FB690133FB612DE03B681900786AEA
:101DD000FEF79EFB03003B613B683A6953437A6A16
:101DE000D31A3B623B6A092B03D83B6A30333B6210
:101DF0000BE03823FB181B78002B01D0412300E0B7
:101E000061233A6A9B180A3B3B623B697B62BB6970
:101E10005A1CBA613A6AD2B21A70FB690133FB618B
:101E20007B6A002BD1D1FB691800BD460CB080BD88
:101E300080B586B000AFF860B9607A603B60BB687F
:101E40007B610EE0FB68DBB218007A6A3B6A110026
:101E500098473B681B685A1C3B681A607B690133D2
:101E60007B617A697B689A42ECDBC046BD4606B06E
:101E700080BDC04680B500AF5C4A88235B0100216D
:101E8000D1505A49594A5A4BD35880221201134310
:101E9000574A8B50574B574A526857490A4080213E
:101EA00049000A435A60554B1B78DBB21A000123E4
:101EB00013400ED0524B9B78DBB21A00082313401C
:101EC00007D04F4A4E4B9B78DBB208210B43DBB265
:101ED00093704C4B2A221A70444A4B4B4B49D150B9
:101EE000424B424A1268C02109030A431A603F4923
:101EF0003E4A474BD358802252021343444A8B50E8
:101F00003A493A4A424BD358424A1340802252043B
:101F100013433F4A8B503549344A354BD3588022BE
:101F200092001343324A8B503B4B3B4A926C3249EE
:101F30000A409A64384B384AD26C2F490A40DA6416
:101F4000364B00221A72354A344B5B78DBB264217F
:101F50008B43DBB224210B43DBB25370304B802226
:101F60001A702E4B9A221A70C0462C4B9B79DBB20A
:101F70001A0002231340F8D0C046284B9B79DBB2ED
:101F80001A0010231340F8D1244A244BDB78DBB22B
:101F90001F210B40DBB2D370204B01221A711F4B63
:101FA00000225A711D4A1D4B5B79DBB240210B4365
:101FB000DBB25371C046194B9B79DBB21A00402348
:101FC0001340F8D0154A154B1B78DBB23F210B406C
:101FD000DBB21370C046114B9B79DBB21A000C23A5
:101FE00013400C2BF7D1C046BD4680BD00700440A5
:101FF0003810000000B00440FFF8FFFE00F007407A
:1020000000D0074000E0074044100000000001102D
:1020100004100000FFFFFFFC009004400040064059
:102020000050064080B588B000AF274BFB60274AC0
:10203000274B9A4216D00023FB610AE0244BFA6931
:102040009200D158214BFA699200D150FB690133BB
:10205000FB61FB689A08FB699A42EFD81D4B1B4A4B
:102060009A6002E01B4B1A4A9A601B4BBB611B4BE8
:102070007B611B4BBB60BA687B69D31AFB6107E0CD
:10208000BB695A1CBA617A69511C796112781A705D
:10209000FB695A1EFA61002BF2D1124B3B61124BC5
:1020A0007B607A683B69D31AFB6104E03B695A1C88
:1020B0003A6100221A70FB695A1EFA61002BF5D1B1
:1020C000C046BD4608B080BD0001000000E0FF1F13
:1020D0000000000000ED00E000E1FF1FFC9D00009B
:1020E0004CA0000000E4FF1FDCEAFF1F80B584B0B5
:1020F00000AF78600023FB6012E00D4AFB681B0113
:10210000D31804331B68002B07D1FB681A01084B56
:10211000D2187B681A60002306E0FB680133FB607D
:10212000FB68002BE9DDC1231800BD4604B080BD6B
:1021300058E4FF1F80B586B000AFF860B9607A60E0
:102140003B6000233B611023FB181800FFF7CEFF14
:1021500003007B617B69C12B01D100231BE03B693C
:10216000FA685A603B69BA68DA603B693A689A6013
:102170003A68B968FB68180001F07CF93A68796838
:10218000FB68180001F096F93A68396AFB68180094
:1021900001F0B0F93B691800BD4606B080BDC046ED
:1021A00090B587B000AFF8607A603B600B23FB18F6
:1021B0000A1C1A7000237B61FB683B613B69002BA2
:1021C00001D1FF230CE03B6958683C687A680B2317
:1021D000FB181978230001F043F803007B617B6949
:1021E0001800BD4607B090BD80B586B000AFF8605E
:1021F0007A600B23FB180A1C1A7000237B61FB68B2
:102200003B613B69002B01D1FF230BE03B69586820
:102210007A680B23FB181B78190000F02FFD0300D0
:102220007B617B691800BD4606B080BD80B584B077
:1022300000AF0200FB1D1A700023FB6017E0104B7B
:10224000FA68D200D358002B0ED00D4AFB68DB0091
:10225000D31804331B78FA1D12789A4204D1084B24
:10226000FA68D200D35807E0FB680133FB60FB68D3
:10227000002BE4D001235B421800BD4604B080BDB2
:1022800068E4FF1F80B584B000AF78607B680133DD
:1022900003D07B685B68FB6001E00023FB60FB68A8
:1022A0001800BD4604B080BD80B584B000AF786032
:1022B0000023FB6016E00F49FA6813001B019B180E
:1022C0009B005B58002B0AD1FA6813001B019B1876
:1022D0009B00084A9A187B681A60002306E0FB6896
:1022E0000133FB60FB68002BE5D0C1231800BD461D
:1022F00004B080BD70E4FF1F80B584B000AF78608B
:102300000023FB6014E0FA6813001B019B189B007C
:102310000B4A9A187B689A4207D17B6844220021B5
:10232000180005F064FE002306E0FB680133FB6043
:10233000FB68002BE7DD9E231800BD4604B080BD7E
:1023400070E4FF1F80B582B000AF78607B68180032
:10235000BD4602B080BDC04690B587B002AF786080
:1023600039603B68FB60FB681B6A002B0ED0FB6882
:102370001C6A7B681A1D7B6808331900FB685B6A5E
:10238000044800930B0001000420A047C046BD464E
:1023900005B090BDFFFF000090B587B002AF786038
:1023A00039603B68FB60FB681B6A002B0ED0FB6842
:1023B0001C6A7B681A1D7B6808331900FB685B6A1E
:1023C000044800930B0001000520A047C046BD460D
:1023D00005B090BDFFFF000090B58FB000AFB960B1
:1023E0007A600F23FB18021C1A707B683B630F2373
:1023F000FB181B78012B00D038E13B6B40229B5C23
:102400001800FFF713FF0300013300D17DE0FF2325
:102410007B613B6B9B6B386B1822BA180121984784
:102420003B6B9B6B386B1422BA18062198477B696B
:10243000FF2B04D1BE4B1800FFF7C8F8BEE13623CE
:10244000FB1800221A7019E0BB6959683623FB1883
:102450001A7813005B009B189B00CB181B78032B8A
:1024600005D13623FB181A787B699A420ED03623A1
:10247000FB181A783623FB1801321A70BB691B78D7
:102480003622BA1812789A42DED300E0C046BB6901
:102490001B783622BA1812789A4204D3A54B18003A
:1024A000FFF794F88AE1BB6959683623FB181A785C
:1024B00013005B009B189B00CB189B681A1D3B6B9D
:1024C000DA60BB6959683623FB181A7813005B0081
:1024D0009B189B00CB189B681B79022B05D9964B48
:1024E0001800FFF773F8C04668E1BB6959683623E6
:1024F000FB181A7813005B009B189B00CB181C225A
:10250000BA18043303CB03C21BE03B6B9B6B386BE5
:102510001022BA18002198473B699B681A1D3B6B33
:10252000DA603B699B681B79022B04D9824B180047
:10253000FFF74CF842E13B691C22BA18043303CB85
:1025400003C23723FB1800221A703BE03723FB1825
:1025500019783B6BDB685A683723FB181B78DB0064
:10256000D3181A783B6BDB6858683723FB181B7845
:10257000DB00C3189B78DB01DBB2D318D8B23A6B0F
:102580000B001C335B00D3180433021C1A70372372
:10259000FB1819783B6BDB685A683723FB181B78EC
:1025A000DB00D31858783A6B0B001C335B00D31850
:1025B0000533021C1A703723FB181A783723FB18CF
:1025C00001321A701C23FB185B681B793722BA187A
:1025D00012789A42BAD33B6BDB68FB623523FB1857
:1025E00000221A703AE0FB6A5A683523FB181B7800
:1025F000DB00D318BB623B6B1B68B96A0122180071
:1026000000F0ECFCBB6A9B78012B0ED13B6B186889
:10261000BB6A1A78BB6A9B78DB01DBB21343D9B281
:102620007B68464A00F030FD11E0BB6A9B78002BC6
:102630000DD13B6B1868BB6A1A78BB6A9B78DB01CB
:10264000DBB21343D9B27B683D4A00F01DFD352350
:10265000FB181A783523FB1801321A70FB6A1B78B5
:102660003522BA1812789A42BDD399E00F23FB188D
:102670001B78032B00D193E00F23FB181B78002B52
:1026800000D18DE00F23FB181B78092B3DD12723A8
:10269000FB18BA6812781A703B6B3C33002B00D1E0
:1026A0007EE03723FB1800221A7028E03723FB183E
:1026B0001B783A6B1C335B00D31804331A7827233A
:1026C000FB181B785340DBB21A000F2313400FD1C5
:1026D0003B6B18682723FB181B780F221340D9B2D5
:1026E0002723FB181B78DB09DBB21A0000F040FE41
:1026F0003723FB181A783723FB1801321A70372357
:10270000FB181B78012BD1D94AE00F23FB181B784B
:10271000142B45D12623FB18BA6812781A703B6B2C
:102720003C33002B3CD03723FB1800221A7032E0D8
:10273000C4900000E0900000F890000059230000D1
:10274000992300003723FB181B783A6B1C335B007E
:10275000D31804331A782623FB181B785340DBB2B6
:102760001A000F2313400FD13B6B18682623FB1868
:102770001B780F221340D9B22623FB181B78DB09E4
:10278000DBB21A0000F0F4FD3723FB181A78372368
:10279000FB1801321A703723FB181B78012BD1D993
:1027A0003B6B1B69002B09D03B6B1C693B6B5A6967
:1027B000B9680F23FB181B781800A047BD460FB05F
:1027C00090BDC046B0B588B002AFF860B9607A601D
:1027D0003B60CE237B613B683B61FB681B781A0042
:1027E00060231340202B1DD1FB6808331A00BB68FF
:1027F0001A603B691B6A002B29D0FB68DB881A0032
:102800007B681A603B691C6AFB685878FB685988CA
:102810003B695B6A7D68BA6800932B00A0470300A0
:102820007B6114E0FB681B781A0060231340402B87
:102830000DD13B699B69002B09D03B699C693B69C1
:10284000DB697A68B968F868A04703007B617B6937
:102850001800BD4606B0B0BDB0B588B002AFB960D3
:102860007A600F23FB18021C1A70FF237B61BB6880
:10287000002B01D1FF23A1E01023FB181800FFF764
:1028800013FD03007B617B69002B01D07B6995E020
:102890003B690F22BA18402112785A543B694022F2
:1028A0009B5C1800FFF7C2FC030001331CD03C699D
:1028B0003B6940229B5C1800FFF7B8FC0300A36053
:1028C0003C693B699B681800FFF7DCFC0300236050
:1028D0003B691B68002B38D13B691800FFF70CFDE2
:1028E00000233B617B6969E0BB681C3319003B69CD
:1028F0001A000F23FB181B78180000F063FA03007E
:102900007B617B69002B07D03B691800FFF7F4FC63
:1029100000233B617B6951E03C693B6918683D6974
:10292000BB689B69274A284900932B00FFF702FCEC
:102930000300A3607B69002B07D03B691800FFF7F9
:10294000DBFC00233B617B6938E03B691033B968ED
:102950000822180005F042FB3B6918331800BB68D9
:1029600008330822190005F039FB3B6920331800B1
:10297000BB6810330822190005F030FB3B6928338F
:102980001800BB689B691422190005F027FB3B69FE
:102990001A007B681A603B6940229B5C1800FFF7B5
:1029A00045FC0300013308D13B691A680F23FB186B
:1029B0001B781100180000F0F1FA00231800BD4642
:1029C00006B0B0BDC5270000D923000090B587B080
:1029D00000AFF8607A603B600B23FB180A1C1A708A
:1029E00000237B61FB68002B01D1FF2317E0FB680C
:1029F0001800FFF7A7FC03003B613B69002B01D1E6
:102A0000C3230CE03B6998683C687A680B23FB1889
:102A100019782300FFF7C4FB03007B617B69180072
:102A2000BD4607B090BDC04680B584B000AF7860A9
:102A300039600023FB607B68BB60BB68002B01D161
:102A4000C32309E0BB689B683A6808211800FFF7B8
:102A5000CBFB0300FB60FB681800BD4604B080BDE3
:102A600080B582B000AFFB1D00221A7036E0FB1D5E
:102A70001B781F4AA021A4204343D3185B181B785E
:102A8000012B26D0FB1D1B78A4225A43184BD318C8
:102A9000A4220021180005F0AAFAFB1D1B78144A95
:102AA000A021A4204343D3185B1801221A70FB1DF8
:102AB0001B780F4AA221A4204343D3185B18FA1DA8
:102AC00012781A70FB1D1B78A4225A43084BD318A6
:102AD00009E0FB1D1A78FB1D01321A70FB1D1B78E3
:102AE000002BC4D000231800BD4602B080BDC046F4
:102AF00020E5FF1F80B582B000AF78607B68A02220
:102B000000219954C046BD4602B080BD80B582B058
:102B100000AF02003960FB1D1A70FB1D1B78002BF3
:102B200003D0FB1D1B78012B02D13B68024A1A60BF
:102B3000C046BD4602B080BD8C9B000080B584B00D
:102B400000AF786039600023BB603B685B7B002B83
:102B500002D0102B08D00FE07B68083339680022C0
:102B6000180000F009FD07E07B680833396800228F
:102B7000180000F017FEC0460023FB601BE0FA6857
:102B800013005B009B189B0038337A68D31804331A
:102B9000BB60BB681A7A3B685B7B9A4208D1BB6812
:102BA0001A68BB6859683B6818009047002306E024
:102BB000FB680133FB60FB68072BE0D98323180017
:102BC000BD4604B080BDC04680B584B000AF0200F1
:102BD0003960FB1D1A703B681B68FB603B68FA1D7F
:102BE00012785A73FB1D1B787F22134015D0FB1DF2
:102BF0001B787F2213400F2B0FDC3B68DB7BDB0154
:102C0000DBB25AB2FB1D1B785BB27F210B405BB27B
:102C100013435BB2DAB23B685A733A68FB6811003F
:102C20001800FFF78BFF03001800BD4604B080BDFD
:102C300080B584B000AF78600A00FB1C1A707B6816
:102C4000FB60FB685B681B6B002B0CD0FB685B6850
:102C50001A6BFB681868FB1C1B781900904703006F
:102C6000BB60BB6804E0044B1800FEF7AFFCFF2319
:102C70001800BD4604B080BD5091000090B587B0EB
:102C800000AFF8607A600B23FB180A1C1A70FB680F
:102C90007B617B699C229B58180003F039FB0B2356
:102CA000FB181B78102213401CD07B695B685B6AA1
:102CB000002B0BD07B695B685C6A7B6918687A685B
:102CC0000B23FB181B781900A04728E0194B1800AC
:102CD000FEF77CFC7B699C229B58180003F03AFBB2
:102CE000FF2323E07B695B685B6C002B0BD07B6967
:102CF0005B685C6C7B6918687A680B23FB181B782F
:102D00001900A0470BE00C4B1800FEF75FFC7B6935
:102D10009C229B58180003F01DFBFF2306E07B69F3
:102D20009C229B58180003F015FB00231800BD4699
:102D300007B090BD84910000BC91000090B585B0B3
:102D400000AF786008001100FB1C021C1A703B00E9
:102D50000A1C1A800F23FB1800221A707B68BB60C4
:102D6000BB689C229B58180003F0D2FABB685B68D2
:102D70001B6C002B14D0BB685B681C6CBB681868AC
:102D80003B001A88FB1C1B781900A047BB689C22DB
:102D90009B58180003F0DEFA0F23FB181B780AE09B
:102DA000074B1800FEF712FCBB689C229B581800CA
:102DB00003F0D0FAFF231800BD4605B090BDC04611
:102DC000F491000080B58AB000AFB9607A600F233B
:102DD000FB18021C1A7000233B6200233B61002396
:102DE000FB610023BB61BB68BB617B68002B01D129
:102DF000C123C8E0FFF734FE03007B617B69002B31
:102E000001D1C123BFE07B690F22BA18A12112783A
:102E10005A547B690833FB6103F046FA01007B6971
:102E20009C2299507B69A2229B5C1A0013005B00D4
:102E30009B185B01564A9A18FB695A612723FB18B5
:102E400000221A7013E02723FB181A7879694420AE
:102E500013005B009B189B00CB181B18FF221A70F5
:102E60002723FB181A782723FB1801321A7027230F
:102E7000FB181B78072BE6D91023FA180F23FB1831
:102E80001B7811001800FFF741FE3B69002B05D1AC
:102E90007B691800FFF72EFEC02374E03A697B6956
:102EA0005A603B691B68002B07D03B691B68796936
:102EB0007A691000984703003B627B691B68002B0E
:102EC00005D1344B1800FEF781FB87235BE07B695B
:102ED0001A68FB695A60FB697A699A60BB68002BC3
:102EE0000CD0BB691B68002B08D0BB691B68BA6992
:102EF00012791000984703003B6201E000233B6217
:102F00003B6A002B07D10F23FB181B78180003F036
:102F10000FF903003B623B6A002B0BD03B695B6BF4
:102F2000002B05D03B695A6B7B691B6818009047E2
:102F3000C42328E03B695B68002B0ED03B695A68CC
:102F40007B6919680F23FB181B7818009047030052
:102F50003B623B6A002B12D005E00F4B1800FEF7D6
:102F600035FBFF230FE03B695B6B002B05D03B6912
:102F70005A6B7B691B68180090478D2303E07B68C0
:102F80007A691A603B6A1800BD460AB080BDC04627
:102F9000C0E4FF1F2C9200005492000080B584B062
:102FA00000AF02003960FB1D1A700023FB603B6814
:102FB000BB60BB685B689B68002B09D0BB685B6823
:102FC0009B683968FA1D1278100098470300FB606F
:102FD000FB681800BD4604B080BDC04680B58EB009
:102FE00000AFF860B960FB1D1A7000237B63FB68BB
:102FF000002B05D1224B1800FEF7E8FAFF233AE038
:10300000FB683B63BB681A781423FB181A70BB6813
:103010009A781423FB185A70BB685B689AB2142321
:10302000FB189A82BB685A781423FB189A701423F1
:10303000FB18FA1D12789A751423FB1800229A6067
:103040001423FB180022DA603B6B5B689B69002B42
:103050000CD03B6B5B689A693B6B1B681421791839
:103060001800904703007B637B6B04E0054B18005E
:10307000FEF7ACFAFF231800BD460EB080BDC04677
:1030800078920000A092000080B588B000AFF86090
:103090007A603B600B23FB180A1C1A70FB68002B3C
:1030A00001D1FF235AE0FB68BB61BB699C229B589E
:1030B000180003F02DF90023FB611BE0FA691300EF
:1030C0005B009B189B003833BA69D31804337B61CB
:1030D0007B691B7A0B22BA1812789A4207D1BB6916
:1030E0009C229B58180003F035F9842336E0FB69D5
:1030F0000133FB61FB69072BE0D90023FB6123E06F
:10310000FA6913005B009B189B003833BA69D31827
:1031100004337B617B691B7AFF2B12D17B690B2205
:10312000BA1812781A727B697A681A607B693A68F1
:103130005A60BB699C229B58180003F00BF90023CE
:103140000CE0FB690133FB61FB69072BD8D9BB6934
:103150009C229B58180003F0FDF881231800BD46FF
:1031600008B080BD80B588B000AFF8607A603B6081
:103170000B23FB180A1C1A700023FB61FB68002B51
:1031800001D1FF2362E0FB68BB61BB695B689B6C9C
:10319000002B13D0BB695B689A6CBB691B68142158
:1031A0007918180090470300FB61FB69002B0BD0D6
:1031B000284B1800FEF70AFAFF2347E0264B1800B9
:1031C000FEF704FAFF2341E0BB699C229B581800DC
:1031D00003F09EF87B690B22BA1812781A707B698B
:1031E00000225A707B693A689A607B697A685A60F3
:1031F0007B690022DA607B690622DA70BB695B6852
:103200001B69002B13D0BB695B681A69BB691B681B
:103210007969180090470300FB61BB699C229B58A9
:10322000180003F097F8FB69002B0ED00BE00B4B56
:103230001800FEF7CBF9BB699C229B58180003F0DD
:1032400089F8FF2302E0942300E0FB691800BD46E3
:1032500008B080BD14930000409300006C93000000
:1032600080B588B000AFF8607A603B600B23FB1834
:103270000A1C1A70FB68002B05D1384B1800FEF7AA
:10328000A5F9FF2366E0FB68FB61FB695B689B6C4B
:10329000002B13D0FB695B689A6CFB691B681421D7
:1032A0007918180090470300BB61BB69002B0BD055
:1032B0002B4B1800FEF78AF9FF234BE0294B18002F
:1032C000FEF784F9FF2345E0FB699C229B58180018
:1032D00003F01EF87B690B22BA1812781A707B690A
:1032E00001225A707B693A689A607B697A685A60F1
:1032F0007B690022DA607B690622DA70FB695B6811
:10330000DB68002B13D0FB695B68DA68FB691B681C
:103310007969180090470300BB61FB699C229B58A8
:10332000180003F017F8BB69002B12D00BE00E4B0E
:103330001800FEF74BF9FB699C229B58180003F01C
:1033400009F8FF2306E0094B1800FEF73FF9932325
:1033500000E0BB691800BD4608B080BD9493000032
:10336000BC930000E8930000149400003C9400001B
:1033700090B585B000AF786008001100FB1C021CFE
:103380001A70BB1C0A1C1A700023FB607B68002BA0
:1033900005D1194B1800FEF719F9FF2328E07B68C7
:1033A000BB60BB689C229B58180002F0B1FFBB6851
:1033B0005B681B6A002B14D0BB685B681C6ABB6827
:1033C0001868BB1C1A78FB1C1B781900A047030067
:1033D000FB60BB689C229B58180002F0BBFFFB6897
:1033E00006E0BB689C229B58180002F0B3FFFF2345
:1033F0001800BD4605B090BD6494000090B585B03E
:1034000000AF786008001100FB1C021C1A70BB1C86
:103410000A1C1A700023FB607B68002B05D1134B3C
:103420001800FEF7D3F8FF231BE07B68BB60BB6886
:103430005B68DB6B002B0DD0BB685B68DC6BBB682B
:103440001868BB1C1A78FB1C1B781900A0470300E6
:10345000FB6005E0064B1800FEF7B8F8FF23FB60A1
:10346000FB681800BD4605B090BDC04694940000AE
:10347000C094000080B586B000AFF860B9607A6093
:1034800000237B61FB68002B05D1094B1800FEF778
:103490009DF8FF2308E0FB683B613B69BA681A624C
:1034A0003B697A685A627B691800BD4606B080BDE8
:1034B000F894000080B586B000AFF860B9607A601B
:1034C00000237B61FB68002B05D1094B1800FEF738
:1034D0007DF8FF2308E0FB683B613B69BA689A62AC
:1034E0003B697A68DA627B691800BD4606B080BD28
:1034F0003095000080B586B000AFF860B9607A60A2
:1035000000237B61FB68002B05D1094B1800FEF7F7
:103510005DF8FF2308E0FB683B613B69BA681A630A
:103520003B697A685A637B691800BD4606B080BD66
:103530007495000080B584B000AF78600023FB6014
:103540007B68002B01D1FF2312E07B68BB60BB6866
:103550005B68DB6C002B0AD0BB685B68DA6CBB680D
:103560001B68180090470300FB60FB6800E0FF2326
:103570001800BD4604B080BDB0B58CB002AFF86095
:10358000B9607A601E23FB1800221A802723FB18DB
:10359000CE221A700023BB61FB683B623B6A9B68CA
:1035A0001E22BA1801211800FFF768FBBB689B7B3D
:1035B000002B00D1A5E03B6A0C331800BB685B68A8
:1035C0000822190004F00AFD3B6A1A8A3B6A1A8233
:1035D0003B6ADA893B6ADA813B6A5A8A3B6A5A82D9
:1035E0003B6A1B7B1A006023134030D13B6A5B7B34
:1035F0001A00684B9200D358002B00D171E01E23B3
:10360000FB181B88022B6CD83B6A5B7B19001E23BE
:10361000FB181B881800604A0B005B005B18D3186E
:103620001B5C012B5DD13B6A5B7B1A00594B9200FE
:10363000D5583B6A0C3319002723FC181423FB18B8
:103640001822BA18386AA8470300237049E03B6A79
:103650005B8A7B617B69002B2FD03B6A1B7B5BB253
:10366000002B2ADB7B690833542B13D97B69083381
:103670001A004A4B11001800FDF7A8FF484B18002C
:10368000FDF7A4FF3B6A9B68002200211800FFF7AA
:10369000B5FE7CE03B6A58693B6A0C33082219008E
:1036A00004F09CFCBB6818683B6A5B6908331A002D
:1036B0007B690021FFF756FD69E03B6A1B6A002B1E
:1036C0000FD03B6A1C6A3B6A0C3318003B6A5B6A8A
:1036D0001422BA1818217918A04702002723FB18D2
:1036E0001A703B6A0C331A001823FC182723FB18A6
:1036F0001978386A1423FB180093230000F096F819
:1037000044E01E23FB181B88042B04D13B6A1800DD
:1037100000F018FA3AE03B6A1B7B5BB2002B35DB0A
:10372000BB68DB7B01225340DBB2002B2ED03B6A0F
:103730005B8A002B2AD03B6A1B6A002B12D0BB6825
:103740009B6808337B613B6A1C6A3B6A58693B6A29
:103750005B6A1422BA1818217918A047020027239F
:10376000FB181A70BB689B6801330FD03B6A0C339F
:103770001A001823FC182723FB181978386A142319
:10378000FB180093230000F051F8C046C046BD4628
:103790000AB0B0BDACE2FF1F84E2FF1FDC95000061
:1037A0001496000080B588B000AFF860B9607A6008
:1037B000FB68FB61FB699B681800FFF7BBFE1023E9
:1037C000FB1800229A701023FB1800221A70102395
:1037D000FB1840225A601023FB1800225A70BB6865
:1037E0001B681022B91801221800FFF7F7FB1023FD
:1037F000FB1801229A70BB681B681022B9180122BD
:103800001800FFF7EBFBFB69DB69BB61FB699B6998
:10381000002B06D0FB699B69BA69002100209847FC
:10382000C046C046BD4608B080BDC04680B586B023
:1038300000AFF8607A603B600B23FB180A1C1A701B
:103840000B23FB181B78CE2B13D11723FB18012257
:103850001A701623FB1800221A70FB689868172349
:10386000FB181A781623FB181B781900FFF7C6FD02
:1038700020E03B6A1B687A68D288934204D97B684F
:10388000DB881A003B6A1A60FB6898683B681A6814
:103890003B6A1B680021FFF7E3FC7B681B785BB287
:1038A000002B07DAFB689868002300220021FFF74D
:1038B00059FCC046C046BD4606B080BD80B586B046
:1038C00000AFF860B9607A603B601723FB18FF22F5
:1038D0001A70BB681B781A001F23134019D1FB68AC
:1038E0009B68FA6806211800FFF7C8F90200172341
:1038F000FB181A70FB681B88032213409AB2FB68FE
:103900001A80FB681A88FB681A803B6802221A60DA
:1039100030E0BB681B781A001F231340012B06D12F
:10392000FB6800221A803B6801221A6022E0BB6813
:103930001B781A001F231340022B1BD1BB689B88E6
:10394000DAB21623FB1810210A431A70FB68986834
:10395000FA681623FB181B781900FFF78FF902008D
:103960001723FB181A70FB681A88FB681A803B68DB
:1039700002221A60FA687B681A601723FB181B780A
:103980001800BD4606B080BD90B587B000AFF860A6
:10399000B9607A603B601723FB18CE221A703B682F
:1039A00000221A60BB685B785B109AB21423FB1884
:1039B00001210A401A80BB681B781A001F2313409C
:1039C00035D1BB685B88DAB21323FB1803210A40A8
:1039D0001A701323FB181B78002B00D191E01323DE
:1039E000FB181B78012B00D08BE01423FB181B88DD
:1039F000012B04D11623FB1811221A7003E01623A1
:103A0000FB1812221A701723FB1800221A70FB6889
:103A10009B69002B00D174E0FB689C69FB685A6AC3
:103A20001623FB181B7800211800A04769E0BB682B
:103A30001B781A001F231340022B62D1BB685B88DE
:103A4000DAB21323FB1803210A401A701323FB1860
:103A50001B78002B55D1BB689B88DAB21223FB1868
:103A60001A701423FB181B88002B18D01623FB1880
:103A700013221A70FB6898681223FB181B780F2218
:103A80001340D9B21223FB181B78DB09DBB21A00F2
:103A9000FFF7B4FC02001723FB181A701EE0162370
:103AA000FB1814221A701223FB181B781A000F231C
:103AB000134013D1FB6898681223FB181B780F2260
:103AC0001340D9B21223FB181B78DB09DBB21A00B2
:103AD000FFF74EFC02001723FB181A70FB689B6966
:103AE000002B0ED0FB689C69FB685A6A1223F918F8
:103AF0001623FB181B781800A0471723FB18002279
:103B00001A701723FB181B781800BD4607B090BD2C
:103B100080B584B000AFF860B9607A603B603B6804
:103B200000221A60FB689B68042201211800FFF73D
:103B300005F9BB685A88FB685A8000231800BD4607
:103B400004B080BD80B582B000AF78607B689A68B1
:103B50007B685B88DBB219001000FFF769F800236F
:103B60001800BD4602B080BD80B584B000AFF860DB
:103B7000B9607A603B603B6801221A60FB681A8E6C
:103B8000FB681A86FB6830331A007B681A600023D2
:103B90001800BD4604B080BD90B587B000AFF86096
:103BA000B9607A603B601523FB18CE221A70162389
:103BB000FB1800221A803B6800221A601523FB18AC
:103BC00004221A70BB685A881223FB181A80122329
:103BD000FB181B88002B03D11623FB1801221A8027
:103BE000FB6898681623FB181B881A000121FFF751
:103BF000A5F802001523FB181A701223FB181A8867
:103C0000FB681A86FB689B6ADB68002B0BD0FB689D
:103C10009B6ADA68FB68DB6A18001223FB181B88B2
:103C2000DBB219009047FB689B69002B15D0FB683D
:103C30009C69FB68DA691223FB1819000120A04770
:103C40001223FB181B88002B07D0FB689C69FB68BC
:103C5000DB691A0000210320A0471523FB181B78FD
:103C60001800BD4607B090BDB0B586B000AFF86093
:103C7000B9607A603B601723FB18CA221A703B6850
:103C800001221A60FB689B6A5B68002B03D1172333
:103C9000FB181B7819E0FB689B6A5D68FB68DB6AB0
:103CA0001800BB689B88DBB2FA6817217C181900E2
:103CB000A84703002370FB681A88FB681A80FA681B
:103CC0007B681A601723FB181B781800BD4606B0E6
:103CD000B0BDC046B0B586B000AFF860B9607A60DC
:103CE0003B601723FB18CA221A701423FB1800220A
:103CF0001A803B6800221A60BB681B781A000323F5
:103D00001340012B01D0042339E0FB689B6A9B68B8
:103D1000002B03D11723FB181B7830E0FB689B6A4C
:103D20009D68FB68DB6A1800BB689B88D9B2BB68DA
:103D30005B88DBB21722BC181A00A8470300237067
:103D4000FB689B69002B19D0BB689B881B029BB248
:103D50001AB2BB685B881BB2FF210B401BB2134336
:103D60001BB29AB21423FB181A80FB689C69FB688B
:103D7000DA691423FB1819000220A0470023180059
:103D8000BD4606B0B0BDC04680B586B000AFF86095
:103D9000B9607A603B603B6802221A60FB689B68EE
:103DA000FA6805211800FEF769FF02001723FB18C7
:103DB0001A70FB681A88FB681A80FA687B681A60B8
:103DC0001723FB181B781800BD4606B080BDC046FF
:103DD000F0B589B002AFF860B9607A603B60BB684B
:103DE0005B881B0A9AB21723FB181A701423FB185E
:103DF000FF221A801323FB18FF221A701223FB18CC
:103E0000CA221A701423FB18BA6892881A80BB68F9
:103E10005A881323FB181A70FB689B6A1B68002BD7
:103E200003D11223FB181B781CE0FB689B6A1D68FA
:103E3000FB68DB6A1E001223FC181423FB18188889
:103E40001323FB181A781723FB1819783B68019382
:103E50007B68009303003000A847030023701223FF
:103E6000FB181B781800BD4607B0F0BD80B582B0C6
:103E700000AF0200FB1D1A70064BFA1D12781100EC
:103E80001F220A40012191400A001A60C046BD4627
:103E900002B080BD00E100E0B0B582B000AF02002A
:103EA0003960FB1D1A70FB1D1B787F2B32D92F4CFC
:103EB000FB1D1B781A000F231340083B99082B4A5F
:103EC000FB1D1B7818000F230340083B9B0806339B
:103ED0009B00D31804331B68FA1D127810000322CC
:103EE0000240D200FF2090400200D2431A403B68BB
:103EF0009B01FF201840FB1D1B781D0003232B4056
:103F0000DB00984003001A438B1D9B00E318043329
:103F10001A6027E0164CFB1D1B785BB29B08144906
:103F2000FA1D127852B29208C03292005258F91D0E
:103F30000978080003210140C900FF2088400100E2
:103F4000C94311403A689201FF201040FA1D1278CF
:103F5000150003222A40D200904002000A43C033D9
:103F60009B001A51C046BD4602B0B0BD00ED00E056
:103F700000E100E080B584B000AF786039607B6814
:103F8000FB603B681B0AD9B2FB689C2299543B68D2
:103F90001B0CD9B2FB68B02299543B681B0ED9B2F6
:103FA000FB68B4229954C046BD4604B080BDC046EB
:103FB00080B584B000AF786039607B68FB60FB68D7
:103FC00084331A0080231B0513433A68D2B21A7057
:103FD000C046BD4604B080BD80B584B000AF7860F7
:103FE00039607B68FB60FB6884331A008023DB0444
:103FF00013431A003B68DBB2DB43DBB21370C046ED
:10400000BD4604B080BDC04680B584B000AF7860C6
:1040100039607B68FB603B68D9B2FB6880229954A9
:10402000C046BD4604B080BD80B584B000AF7860A6
:104030007B68FB60FB688022FF219954C046BD4627
:1040400004B080BD80B584B000AF786039607B6813
:10405000FB600B23FB18FA688021525C1A70FB6826
:1040600084229B5CDBB20B22BA1812781340DBB2BD
:104070003A68D2B21340DBB21800BD4604B080BD2E
:1040800080B584B000AF78607B68FB60FB688C22F1
:10409000FF219954C046BD4604B080BD80B584B0B0
:1040A00000AF78607B68FB60FB688822FF21995431
:1040B000C046BD4604B080BD80B584B000AF786016
:1040C0007B68FB60FB6894331A008023DB04134396
:1040D000DF221A70C046BD4604B080BD80B584B0F2
:1040E00000AF78607B68FB60FB6894331A00802324
:1040F0001B05134302221A70C046BD4604B080BDA2
:1041000080B584B000AF78607B68FB60FB68943357
:104110001A008023DB041343FD221A70C046BD46FB
:1041200004B080BD80B584B000AF78607B68FB6070
:10413000FB6894331A0080231B05134301221A7075
:10414000C046BD4604B080BD80B584B000AF786085
:104150007B68FB60FB6894331A008023DB04134305
:1041600000221A70C046BD4604B080BD80B584B040
:1041700000AF78607B68FB60FB6890229B5CDBB2E1
:104180001800BD4604B080BD80B584B000AF786033
:104190007B68FB60FB6890229B5CDBB21A00F0231B
:1041A00013401B11DBB21800BD4604B080BDC046F1
:1041B00080B584B000AF78607B68FB60FB689022BC
:1041C0009B5CDBB21A0008231340DB08DBB218004B
:1041D000BD4604B080BDC04680B584B000AF7860F5
:1041E0007B68FB60FB6890229B5CDBB21A000423B7
:1041F00013409B08DBB21800BD4604B080BDC0462A
:1042000080B584B000AF78607B68FB60FB68A42257
:104210009B5CDBB29AB20A23FB1812021A80FB687D
:10422000A0229B5CDBB29AB20A23FB181B881343C3
:104230009BB21800BD4604B080BDC04680B584B0B6
:1042400000AF786039607B68FB60FB6898229B5CFC
:10425000DBB27F229343DAB23B68DBB27F210B40B3
:10426000DBB21343D9B2FB6898229954C046BD46CD
:1042700004B080BD80B584B000AF786039607B68E1
:10428000FB60FB683A68303292000021D154C0468E
:10429000BD4604B080BDC04680B586B000AFF860B2
:1042A000B9607A60FB687B61BB6830339B007A69D8
:1042B000D3181A0080231B0513431A007B68012BB7
:1042C00001D1012300E000231370C046BD4606B0B3
:1042D00080BDC04680B586B000AFF860B960FB1DF8
:1042E0001A70FB687B61BB6830339B007A69D31816
:1042F0001A0080231B0513431A00FB1D1B78012B9A
:1043000001D1042300E008231370C046BD4606B067
:1043100080BDC04680B584B000AF786039607B68EE
:10432000FB603B6830339B00FA68D3181A00802387
:10433000DB041343FD221A70C046BD4604B080BDA5
:1043400080B584B000AF78607B68FB60FB680133A8
:10435000FF331A0080231B05134340221A70C04606
:10436000BD4604B080BDC04680B584B000AF786063
:104370007B68FB60FB681B7FDBB21A0004231340E1
:104380009B0808D0FB681C331A0080231B051343CD
:1043900080221A7008E0FB680933FF331A0080237B
:1043A0001B05134310221A70C046BD4604B080BDE1
:1043B00080B584B000AF78607B68FB60FB681B7FD2
:1043C000DBB21A00042313409B0808D0FB681C339F
:1043D0001A008023DB0413437F221A7008E0FB6875
:1043E0000933FF331A008023DB041343EF221A70D2
:1043F000C046BD4604B080BD80B584B000AF7860D3
:104400007B68FB60FB680133FF331A0080231B05C8
:10441000134380221A70C046BD4604B080BDC0461A
:1044200080B584B000AF78607B68FB60FB680133C7
:10443000FF331A008023DB0413437F221A70C04627
:10444000BD4604B080BDC04680B584B000AF786082
:104450007B68FB60FB68942240219954C046BD46AE
:1044600004B080BD80B584B000AF78607B68FB602D
:10447000FB68942200219954C046BD4604B080BD1B
:1044800080B584B000AF78607B68FB60FA688423F5
:104490005B001021D154C046BD4604B080BDC0466B
:1044A00080B584B000AF78607B68FB60FB680D333B
:1044B000FF331A0080231B05134340221A70C046A5
:1044C000BD4604B080BDC04680B584B000AF786002
:1044D00039607B68FB60012002F038F9FB681B69DA
:1044E000002B03D1FB683A681A6103E0FB685B6943
:1044F0003A681A61FB683A685A613B6800221A619F
:10450000FB689B695A1CFB689A61012002F030F934
:10451000C046BD4604B080BD80B584B000AF7860B1
:1045200039607B68FB60012002F010F9FB689B6931
:10453000002B04D1012002F01BF9C1231CE0FB6811
:104540001A693B681A60FB681B69002B0BD0FB687B
:104550001B691A69FB681A61FB681B69002B02D191
:10456000FB6800225A61FB689B695A1EFB689A61CE
:10457000012002F0FDF800231800BD4604B080BD04
:1045800080B586B000AF78607B68FB60FB68154A39
:104590005A63FB68144ADA60FB68DA68FB681A61E0
:1045A000FB680C229A61FB68DB687B6100233B613E
:1045B0000AE07B691C331A007B691A617B691C3332
:1045C0007B613B6901333B613B690A2BF1D97B6914
:1045D00000221A61FB687A695A6100231800BD46FF
:1045E00006B080BD00E8FF1F50E8FF1F80B584B013
:1045F00000AF78600C23FA187B6811001800FFF7F1
:104600008BFF7B684B229B5C002B0DD1264B1B68DC
:104610005B0A5B0204331A007B685B6B1360FB6808
:104620007A68526B5A6010E01F4B1B685B0A5B0292
:104630000822134304331A007B685B6B0833136052
:10464000FB687A68526B08325A60FB6800221A7065
:10465000FB6800225A70FB6800229A60FB68002207
:104660009A70FB680122DA75FA687B68DA637B6806
:104670004922002199540C4B1B685B0A5A027B6843
:104680004B215B5CDB0008210B4013437A68492116
:10469000525C920140210A4004490A431A60C04614
:1046A000BD4604B080BDC046C4E5FF1F88000800B9
:1046B000B0B584B000AFF8607A603B600B23FB18A4
:1046C0000A1C1A70012002F041F8314B1B685B0A8A
:1046D0005A020B23FB181B785901F0235B000B4097
:1046E0001A4311000B23FB181A78F8684B241300A7
:1046F0009B009B189B00C3181B191B78DB0008222A
:1047000013400B4304337A681A60214B1B685B0A21
:104710005A020B23FB181B785901F0235B000B4056
:104720001A4311000B23FB181A78F8684B24130066
:104730009B009B189B00C3181B191B78DB000822E9
:1047400013400B431A003B681B0412490B4018002E
:104750000B23FB181978FC6849250B009B005B189C
:104760009B00E3185B191B789B0140210B4003431E
:1047700088210B431360012001F0FAFFFB681B6ADC
:104780001800FFF799FC00231800BD4604B0B0BD27
:10479000C4E5FF1F0000FF03B0B586B000AFF860AE
:1047A0007A603B600B23FB180A1C1A700B23FB1862
:1047B0001A781623F918F868402413009B009B18F8
:1047C0009B00C3181B191B880B801623FB181A8823
:1047D0003B689A4203D21623FB181B883B60BB6AD6
:1047E0003A681A60314B1B685B0A5A020B23FB18AC
:1047F0001B785901F0235B000B401A4311000B2377
:10480000FB181A78F8684A2413009B009B189B0039
:10481000C3181B191B78DB00082213400B4310221E
:10482000134304337A681A60204B1B685B0A5A02F0
:104830000B23FB181B785901F0235B000B401A4334
:1048400011000B23FB181A78F8684A2413009B0008
:104850009B189B00C3181B191B78DB000822134010
:104860000B43102213431A003B681B0410490B40F2
:1048700018000B23FB181978FC6848250B009B00D7
:104880005B189B00E3185B191B789B0140210B40D0
:10489000034388210B431360FB681B6A1800FFF772
:1048A0000BFC00231800BD4606B0B0BDC4E5FF1FD9
:1048B0000000FF0380B584B000AF78607B681B6A9E
:1048C0001800FFF7EBFB7B681B6A1800FFF706FC7C
:1048D0007B681B6A00211800FFF7B0FC0023FB6017
:1048E00055E0464B1B685B0A5A02FB685901F023EE
:1048F0005B000B40134300221A60404B1B685B0AAD
:104900005A02FB685901F0235B000B401343082255
:10491000134300221A60394B1B685B0A5A02FB687A
:104920005901F0235B000B40134310221343002274
:104930001A60324B1B685B0A5A02FB685901F0236C
:104940005B000B4013431822134300221A6079685E
:10495000FA684B2013009B009B189B00CB181B1878
:1049600000221A707968FA684A2013009B009B188D
:104970009B00CB181B1800221A707B681B6AFA6810
:1049800011001800FFF776FCFB680133FB60FB6841
:10499000052BA6D91A4B00221A707B681B6A0121CD
:1049A0001800FFF731FB7B681B6A1800FFF7A8FBB4
:1049B0007B683322002199547B6802229A847B68A9
:1049C0000122DA847B681B6A1800FFF759FB0B236E
:1049D000FB188D221A707B681A6A0B23FB181B7850
:1049E00019001000FFF7E4FA7B681B6A1800FFF754
:1049F00063FB00231800BD4604B080BDC4E5FF1F63
:104A0000A0E9FF1F90B589B000AF78607B68B02245
:104A1000012199547B681B6A01211800FFF7F4FA01
:104A20007B681B6A1F22BC181800FFF7ADFB030050
:104A300023707B685A680C23FB181A600C23FB1840
:104A40001F22BA1812781A730C23FB1800229A73CB
:104A50000C23FB180022DA730C23FB1800225A6087
:104A60000C23FB1800229A600C23FB18190010205D
:104A7000FEF7AAF8C046BD4609B090BD90B58FB00C
:104A800000AF786000237B6300233B630023FB625D
:104A90007B681B6A2B22BC181800FFF767FB03001A
:104AA00023707B681B6A2A22BC181800FFF76CFB76
:104AB000030023707B681B6A2922BC181800FFF7CB
:104AC00077FB030023707B681B6A2822BC18180040
:104AD000FFF782FB030023707B681B6A0821180024
:104AE000FFF792FADF4B1B685B0A5A022A23FB1876
:104AF0001B785901F0235B000B401A432923FB1854
:104B00001B781B0110210B401A432823FB181B782C
:104B1000DB0008210B4013431B683B633B6B1B0C02
:104B20009B059B0D7B633B6B9B08DAB22723FB182D
:104B30000F210A401A702723FB181B780D3B5A429D
:104B40005341DAB22623FB181A702923FB181B786D
:104B5000002B00D1ADE02A23FB181A7879681300E6
:104B60009B009B189B00CB1838331B683B623B6A49
:104B7000002B00D132E23B6ADA687B6BD2183B6AC9
:104B8000DA603B6A9A683B6ADB68D31AFB612A23C6
:104B9000FB181A782A23FB18197878684A240B0026
:104BA0009B005B189B00C3181B191B7801214B400D
:104BB000DCB279684A2013009B009B189B00CB183D
:104BC0001B18221C1A702A23FB181A782A23FB1898
:104BD0001978786848240B009B005B189B00C31869
:104BE0001B191B7801214B40DCB279684820130067
:104BF0009B009B189B00CB181B18221C1A70FB698A
:104C0000002B0FD02A23FB181A7879684020130054
:104C10009B009B189B00CB181B181B881A007B6BF2
:104C20009A423FD93B6ADA680823FB189A603B6ACC
:104C30005A680823FB185A602A23FB181A787968E7
:104C400013009B009B189B00CB18383300221A607E
:104C50003A6A7B6811001800FFF736FC2A23FB181C
:104C60001A787968402013009B009B189B00CB1892
:104C70001B181B881A007B6B9A4200D069E12A231B
:104C8000FB181B78002B00D063E1774B01221A70D0
:104C90007B6858682A23FB18197800230022FEF746
:104CA000DFFA9EE13A6A7B681100180000F0BCFC54
:104CB00097E12A23FB181B78002B33D17B6B002B49
:104CC00030D17B685A680823FB181A600823FB1848
:104CD0002A22BA1812781A732623FB181B785A1E38
:104CE0009341DAB20823FB189A732B23FB181B7825
:104CF000DB08DBB21A00012313405A1E9341DAB2DB
:104D00000823FB18DA730823FA182A23FB181B78E8
:104D100011001800FDF758FF7B681B6A1800FFF7A9
:104D2000CBF95EE1504B1B78002B02D04E4B00229A
:104D30001A702A23FB181A78796813009B009B18B5
:104D40009B00CB183C331B683B623B6A002B00D1B5
:104D500046E13B6ADB7D002B2FD1424B1B685B0A8F
:104D60005A022A23FB181B785901F0235B000B40E1
:104D70001A4311002A23FB181A7878684B24130071
:104D80009B009B189B00C3181B191B78DB00082293
:104D900013400B4304331B68BB613B6A5A683B6A90
:104DA000DB68D318FB62BA69FB6A9A4205D07A6B5A
:104DB000B969FB6A180003F011F93B6ADA687B6B8A
:104DC000D2183B6ADA603B6A9A683B6ADB68D31A9E
:104DD000FB612A23FB181B78002B47D12723FB18E4
:104DE0001B780D2B42D12A23FB1819787B680122EE
:104DF000180000F085FE2A23FB181A7879684820ED
:104E000013009B009B189B00CB181B1801221A70E3
:104E10002A23FB181A787968492013009B009B18F5
:104E20009B00CB181B1801221A702A23FB181A7832
:104E30002A23FB18197878684B240B009B005B1819
:104E40009B00C3181B191B7801214B40DCB2796809
:104E50004B2013009B009B189B00CB181B18221C97
:104E60001A703BE0C4E5FF1FA0E9FF1F2A23FB18CF
:104E70001A782A23FB181978786849240B009B00BC
:104E80005B189B00C3181B191B7801214B40DCB237
:104E90007968492013009B009B189B00CB181B18B6
:104EA000221C1A702A23FB181A782A23FB18197857
:104EB00078684B240B009B005B189B00C3181B19E0
:104EC0001B7801214B40DCB279684B2013009B001A
:104ED0009B189B00CB181B18221C1A703B6A9B68FE
:104EE000002B12D0FB69002B0FD02A23FB181A7855
:104EF0007968402013009B009B189B00CB181B185F
:104F00001B881A007B6B9A421CD93B6ADA6808231B
:104F1000FB189A603B6A5A680823FB185A602A23D8
:104F2000FB181A78796813009B009B189B00CB181C
:104F30003C3300221A603A6A7B6811001800FFF7C0
:104F4000C3FA07E03A6A7B681100180000F0BCFB66
:104F500047E0C0462A23FB181B78002B0DD17B6B42
:104F6000002B0AD1204B1B7801225340DBB2002BCF
:104F700003D07B681800FFF739FB7B685A68082369
:104F8000FB181A600823FB182A22BA1812781A7321
:104F90002623FB181B785A1E9341DAB20823FB180C
:104FA0009A732B23FB181B78DB08DBB21A00012352
:104FB00013405A1E9341DAB20823FB18DA73082310
:104FC000FA182A23FB181B7811001800FDF7FCFDC6
:104FD0007B681B6A1800FFF76FF802E0C04600E02C
:104FE000C046BD460FB090BDA0E9FF1F80B582B09E
:104FF00000AF78607B681B6A04211800FFF704F893
:105000007B681B6A1800FFF7FBF803001A007B6837
:105010001A857B681B6A20211800FEF7F5FFC04641
:10502000BD4602B080BDC04690B585B000AF786087
:105030000F23FB1800221A707FE00F23FB181A7849
:105040007968422013009B009B189B00CB181B180B
:105050001B78012B6AD1474B1B685B0A5A020F234E
:10506000FB181B785901F0235B000B401A43110019
:105070000F23FB181A7878684A2413009B009B18AA
:105080009B00C3181B191B78DB00082213400B433D
:10509000102213431A000F23FB1819787868402454
:1050A0000B009B005B189B00C3181B191B881B047B
:1050B00031490B4008210B4313602E4B1B685B0AE0
:1050C0005A020F23FB181B785901F0235B000B4099
:1050D0001A4311000F23FB181A7878684B24130029
:1050E0009B009B189B00C3181B191B78DB00082230
:1050F00013400B431A000F23FB18197878684024DB
:105100000B009B005B189B00C3181B191B881B041A
:1051100019490B4008210B4313607B681A6A0F235F
:10512000FB181B7819001000FFF7F4F80F23FB1889
:105130001A780F23FB1801321A700F23FB181B7803
:10514000052B00D879E77B681B6A80211800FEF7E1
:105150005BFF7B6842229B5C012B07D17B6842226C
:10516000002199547B681800FFF740FAC046BD46FD
:1051700005B090BDC4E5FF1F0000FF0380B582B0FD
:1051800000AF1B4B7B607B681B6A08211800FEF791
:1051900059FF031E03D07B681800FFF76FFC7B6884
:1051A0001B6A01211800FEF74DFF031E03D07B6828
:1051B0001800FFF727FC7B681B6A04211800FEF724
:1051C00041FF031E03D07B681800FFF70FFF7B68C9
:1051D0001B6A80211800FEF735FF031E04D07B6890
:1051E0001800FFF721FFC046C046BD4602B080BD93
:1051F000A4E9FF1F80B584B000AF786039600C4B24
:10520000FB60FB681800FFF7BBF90A4B0A4A1A60FB
:1052100001F04AF80200FB68DA613B68FA681A603C
:10522000FB687A685A6000231800BD4604B080BD50
:10523000A4E9FF1F58EAFF1F10E8FF1F90B585B0D3
:1052400000AF02003960FB1D1A703B68FB60FB1D5C
:105250001B78180001F002F803001900FB683022E7
:105260009954FB68B02200219954FB1D1B7818004B
:1052700001F006F80200FB681A62FB683222102176
:105280009954FB68312200219954FB681B6A18006D
:10529000FEF7CAFEFB681B6A1800FFF789F8FB6877
:1052A0001B6A1800FFF7D0F8FB681B6A1800FFF7AD
:1052B000D9F8FB681B6A1800FFF7E2F8FB681B6A65
:1052C0001800FFF7EDF8FB1D1B78180000F0C6FF73
:1052D00003005CB2FB1D1B78180000F0B3FF030055
:1052E00019002000FEF7D8FDFB1D1B78180000F008
:1052F000B5FF03005BB21800FEF7B8FDFB68302273
:105300009B5C1A000C4B1900100001F00DFA0B4BBE
:105310000B4A1A60FB681A6A084B1B6819001000D8
:10532000FEF728FEFB681800FFF7C4FA00231800F8
:10533000BD4605B090BDC0467D510000C4E5FF1FCD
:1053400000E6FF1F80B584B000AF02003960FB1D8E
:105350001A70FB1D1B78B4225A430B4BD318FB6009
:10536000FB681B6A1800FEF7FFFFFB681B6A18004A
:10537000FEF7D8FEFB681B6A1800FFF751F8002300
:105380001800BD4604B080BDA4E9FF1F90B585B0EC
:1053900000AF786039600E23FB1800221A807B680A
:1053A000BB603B681B7818003B685B781C00BA68E0
:1053B000442103009B001B189B00D3181B195B188A
:1053C00001221A703B689B78012B0AD13B689B8AAB
:1053D0000E22BA1899B25C48814200D95A4B138008
:1053E00008E03B689B8A0E22BA1899B2402900D97E
:1053F000402313803B681B7818003B689C78BA6890
:10540000462103009B001B189B00D3185B18221C2D
:105410001A703B681B7818003B685C78BA684721B3
:1054200003009B001B189B00D3185B18221C1A70EA
:105430003B681B781800BA68402103009B001B18CA
:105440009B00D3185B180E22BA1812881A803B688A
:105450001B781800BA68422103009B001B189B00B0
:10546000D3185B1800221A703B681B781800BA68C2
:10547000432103009B001B189B00D3185B180022DC
:105480001A703B685B78002B19D13B681B781800B9
:10549000BA68492103009B001B189B00D3185B18B6
:1054A00000221A703B681B781900BA680B009B0039
:1054B0005B189B00D3183C3300221A6018E03B684D
:1054C0001B781800BA68482103009B001B189B003A
:1054D000D3185B1800221A703B681B781900BA6851
:1054E0000B009B005B189B00D318383300221A6016
:1054F000BB68186A3B681B7819003B689B78013BC6
:105500005A1E9341DBB21A00FEF7C6FEBB68186A4A
:105510003B681B7819003B685B785A1E9341DBB2ED
:105520001A00FEF7D7FE3B685B78002B07D13B687B
:105530001B78002B03D1BB681800FFF757F8002336
:105540001800BD4605B090BDFF03000090B585B0C2
:1055500000AF786008001100FB1C021C1A70BB1C15
:105560000A1C1A707B68FB60BB1C1A78FB1C19783C
:105570007B68180000F0C4FAFB681A6AFB1C1B78F1
:1055800019001000FEF776FE264B1B685B0A5A02D4
:10559000FB1C1B785901F0235B000B401A43BB1C1A
:1055A0001B781B0110210B4013430433012252428C
:1055B0001A601C4B1B685B0A5A02FB1C1B785901C2
:1055C000F0235B000B401A43BB1C1B781B0110210E
:1055D0000B401343082213430433012252421A6042
:1055E000FB1C1A78F968402013009B009B189B0055
:1055F000CB181B18012252421A80FB1C1A78BB1CC4
:105600001978F868442413009B009B189B00C3186A
:105610005B181B1900221A7000231800BD4605B044
:1056200090BDC046C4E5FF1F90B589B002AF786059
:10563000396093237B613B689A683B68DB68D31AC7
:10564000FB607B683B613B68DB68002B0BD13B68F0
:105650001B7819003A690B009B005B189B00D3185C
:1056600038333A681A603B69B0229B5C002B10D13A
:105670003B6819783B685A683B68DB68D218FC685D
:1056800038690C23FB1800932300FFF785F803000B
:105690007B617B69002B11D03B681B7819003A694C
:1056A0000B009B005B189B00D318383300221A6054
:1056B0003A683B6911001800FEF706FF7B69180085
:1056C000BD4607B090BDC04680B586B000AF7860DB
:1056D000396094237B617B68BB603B689A683B6858
:1056E000DB68D31A3B613B68DB68002B0BD13B685E
:1056F0001B781900BA680B009B005B189B00D3183D
:105700003C333A681A603B681B781800BA6840213D
:1057100003009B001B189B00D3185B181B881A0002
:105720003B699A420CD23B681B781800BA6840214A
:1057300003009B001B189B00D3185B181B883B6160
:105740003B685B681A003B68DB68D318FB602D4B35
:105750001B68002B14D03B690322134003D1FB6864
:10576000032213400CD03B680022DA75254B1B68DE
:105770005B421A0003231A40224B1B68D318FB60BC
:10578000BB68B0229B5C002B08D13B6819783B6951
:10579000FA687868FEF78CFF03007B617B69002B59
:1057A00011D03B681B781900BA680B009B005B188E
:1057B0009B00D3183C3300221A603A68BB68110082
:1057C0001800FEF781FE3B69002B16D13B681B7861
:1057D000002B12D13A68BB6811001800FEF774FE66
:1057E000BB684B229B5C01225340D9B2BB684B2261
:1057F0009954BB681800FEF7F9FE7B691800BD4696
:1058000006B080BD58EAFF1F90B585B000AF786044
:1058100008001100FB1C021C1A70BB1C0A1C1A7029
:105820007B68FB60FB1C1A78F968432013009B001F
:105830009B189B00CB181B1801221A70FB1C1A78AE
:10584000F968422013009B009B189B00CB181B1883
:1058500001221A70BB1C1A78FB1C19787B6818008F
:1058600000F04EF9BB1C1B78002B2FD0334B1B686C
:105870005B0A5A02FB1C1B785901F0235B000B40AA
:105880001A431100FB1C1A78F8684A2413009B0085
:105890009B189B00C3181B191B78DB0008221340C0
:1058A0000B43102213431A00FB1C1978F86840249C
:1058B0000B009B005B189B00C3181B191B881B0463
:1058C0001F490B408C210B4313602CE01B4B1B68C2
:1058D0005B0A5A02FB1C1B785901F0235B000B404A
:1058E0001A431100FB1C1A78F8684B2413009B0024
:1058F0009B189B00C3181B191B78DB000822134060
:105900000B431A00FB1C1978F86840240B009B001D
:105910005B189B00C3181B191B881B0408490B400C
:105920008C210B431360FB681B6A1800FEF7C4FB55
:1059300000231800BD4605B090BDC046C4E5FF1F5A
:105940000000FF0390B585B000AF7860080011003B
:10595000FB1C021C1A70BB1C0A1C1A707B68FB60C3
:10596000FB1C1A78F968432013009B009B189B00CE
:10597000CB181B1800221A70FB1C1A78F9684220F9
:1059800013009B009B189B00CB181B1800221A7059
:10599000FB681A6AFB1C1B7819001000FEF7BAFCA2
:1059A000BB1C1B78002B4BD0FB68186AFB1C1B78B8
:1059B00001221900FEF770FCFB68186AFB1C1B78BB
:1059C00001221900FEF786FCFB1C1A78F9684820B2
:1059D00013009B009B189B00CB181B1800221A7009
:1059E000454B1B685B0A5A02FB1C1B785901F023CC
:1059F0005B000B401A431100FB1C1A78F8684A241C
:105A000013009B009B189B00C3181B191B78DB001D
:105A1000082213400B43102213431A00FB1C197871
:105A2000F86840240B009B005B189B00C3181B19EF
:105A30001B881B0431490B4008210B43136051E0C4
:105A4000FB68186AFB1C1B7801221900FEF724FC76
:105A5000FB68186AFB1C1B7800221900FEF73AFC51
:105A6000FB1C1A78F968492013009B009B189B00C7
:105A7000CB181B1800221A70FB1C1B78002B04D1BA
:105A8000FB681800FEF7B2FD2CE01B4B1B685B0A9D
:105A90005A02FB1C1B785901F0235B000B401A4390
:105AA0001100FB1C1A78F8684B2413009B009B180C
:105AB0009B00C3181B191B78DB00082213400B4303
:105AC0001A00FB1C1978F86840240B009B005B1837
:105AD0009B00C3181B191B881B0408490B40082195
:105AE0000B431360FB681B6A1800FEF7E5FA0023FE
:105AF0001800BD4605B090BDC4E5FF1F0000FF03C0
:105B000080B588B000AF786008001100FB1C021C53
:105B10001A70BB1C0A1C1A700023FB617B68BB61F6
:105B2000BB1C1B78002B16D1FB1C1A78B96913001B
:105B30009B009B189B00CB183C331B68FB61FB1C34
:105B40001A78B96913009B009B189B00CB183C3353
:105B500000221A6015E0FB1C1A78B96913009B003B
:105B60009B189B00CB1838331B68FB61FB1C1A7811
:105B7000B96913009B009B189B00CB183833002297
:105B80001A60FB69002B2DD0FA697B6811001800A0
:105B9000FEF79AFC0823FB18012252429A60FB6927
:105BA0005A680823FB185A60BB695A680823FB1817
:105BB0001A600823FB18FA1C12781A730823FB18C2
:105BC00000229A73BB1C1B785A1E9341DAB2082339
:105BD000FB18DA730823FA18FB1C1B781100180055
:105BE000FCF7F2FF00231800BD4608B080BDC04698
:105BF00080B584B000AF78600A00FB1C1A707B6827
:105C0000FB60FB681A6AFB1C1B7819001000FEF78A
:105C100015FBFB68FA1C332112785A54FB680122E9
:105C20009A8400231800BD4604B080BD80B584B0BE
:105C300000AF78607B68FB60FB681B6AFF2118007F
:105C4000FEF7CAF9FB681B6A00211800FEF7F6FA96
:105C5000FB681B6A1800FEF777FAFB681B6A1800DE
:105C6000FEF76EFBFB681B6A1800FEF7C5FBFB68BE
:105C7000FF229A84FB68DB69180000F033FB0023E5
:105C80001800BD4604B080BD80B586B000AFF86096
:105C90007A600B23FB180A1C1A70FB687B610B23CC
:105CA000FB181B780F221A407969422013009B00D1
:105CB0009B189B00CB181B181B789AB27B681A8024
:105CC00000231800BD4606B080BDC04690B587B021
:105CD00000AF786008001100FB1C021C1A703B002A
:105CE0000A1C1A807B683B61FF237B610F23FB1832
:105CF000FA1C12780F210A401A700E23FB18FA1CA6
:105D00001278D2091A700F23FB181A783B001B88EF
:105D1000DCB23969422013009B009B189B00CB1812
:105D20001B18221C1A703B001B88012B0CD10E2360
:105D3000FB181A780F23FB1819787B681800FFF7F7
:105D400063FD03007B612CE03B001B88002B28D106
:105D50000F23FB181A783969432013009B009B1806
:105D60009B00CB181B181B78002B1AD00F23FB1895
:105D70001A780E23F9183869472413009B009B18E2
:105D80009B00C3181B191B780B700E23FB181A7885
:105D90000F23FB1819787B681800FFF7D3FD030069
:105DA0007B617B691800BD4607B090BD80B584B0AB
:105DB00000AF786008001100FB1C021C1A703B0049
:105DC0000A1C1A800F23FB1800221A707B68BB6024
:105DD000BB68DB69180000F09BFAFB1C1B78062BE4
:105DE00018D89A00124BD3181B689F46BB683A001C
:105DF00012889A840FE0BB683A001288DA840AE0BD
:105E0000BB683A001288DA8505E0BB683A00128860
:105E10001A8500E0C046BB68DB69180000F09AFAFA
