:1000000000600020E9040000F9040000F904000089
:1000100000000000000000000000000000000000E0
:10002000000000000000000000000000F9040000D3
:100030000000000000000000F9040000F9040000C6
:10004000F9040000F9040000F9040000F9040000BC
:10005000F9040000F9040000F9040000F9040000AC
:10006000F9040000F9040000F9040000F90400009C
:10007000F9040000F9040000F9040000F90400008C
:10008000F9040000F9040000F9040000F90400007C
:10009000F9040000F9040000F9040000F90400006C
:1000A000F9040000F9040000F9040000F90400005C
:1000B000F9040000F9040000F9040000F90400004C
:10040000FFFFFFFFFFFFFFFFFFFFFFFFFEFFFFFFFD
:1004100010B5064C2378002B07D1054B002B02D0DA
:10042000044800E000BF0123237010BD00E4FF1F5B
:10043000000000002C3C0000084B10B5002B03D03E
:100440000749084800E000BF07480368002B00D1B7
:1004500010BD064B002BFBD09847F9E700000000C9
:1004600004E4FF1F2C3C0000ECE2FF1F0000000032
:10047000164B002B00D1144B9D46402292029A1A33
:10048000924600218B460F461348144A121A03F075
:1004900044FA0F4B002B00D098470E4B002B00D096
:1004A00098470020002104000D000D48002802D0CC
:1004B0000C4800E000BF03F0F7F92000290000F02D
:1004C000E5FA03F0DBF9C0460000080000600020F8
:1004D000000000000000000000E4FF1F88ECFF1F88
:1004E000000000000000000072B600F0DDFE00F029
:1004F0006DFF62B6FFF7BCFF00480047F90400003B
:100500000023C25C0133002AFBD1581E7047000053
:1005100002B4714649084900095C49008E4402BC96
:100520007047C04603B47146490840004900095A63
:1005300049008E4403BC7047002243088B4274D3A9
:1005400003098B425FD3030A8B4244D3030B8B42D4
:1005500028D3030C8B420DD3FF22090212BA030CDD
:100560008B4202D31212090265D0030B8B4219D3BE
:1005700000E0090AC30B8B4201D3CB03C01A5241DE
:10058000830B8B4201D38B03C01A5241430B8B4226
:1005900001D34B03C01A5241030B8B4201D30B030F
:1005A000C01A5241C30A8B4201D3CB02C01A524136
:1005B000830A8B4201D38B02C01A5241430A8B42F9
:1005C00001D34B02C01A5241030A8B4201D30B02E2
:1005D000C01A5241CDD2C3098B4201D3CB01C01AFC
:1005E000524183098B4201D38B01C01A5241430906
:1005F0008B4201D34B01C01A524103098B4201D3F4
:100600000B01C01A5241C3088B4201D3CB00C01A60
:10061000524183088B4201D38B00C01A52414308D8
:100620008B4201D34B00C01A5241411A00D20146FD
:10063000524110467047FFE701B5002000F0F0F886
:1006400002BDC0460029F7D076E7704703460B434A
:100650007FD4002243088B4274D303098B425FD3BB
:10066000030A8B4244D3030B8B4228D3030C8B42E7
:100670000DD3FF22090212BA030C8B4202D31212CD
:10068000090265D0030B8B4219D300E0090AC30BA2
:100690008B4201D3CB03C01A5241830B8B4201D34F
:1006A0008B03C01A5241430B8B4201D34B03C01A38
:1006B0005241030B8B4201D30B03C01A5241C30AB0
:1006C0008B4201D3CB02C01A5241830A8B4201D321
:1006D0008B02C01A5241430A8B4201D34B02C01A0B
:1006E0005241030A8B4201D30B02C01A5241CDD2B0
:1006F000C3098B4201D3CB01C01A524183098B42FB
:1007000001D38B01C01A524143098B4201D34B01E3
:10071000C01A524103098B4201D30B01C01A524146
:10072000C3088B4201D3CB00C01A524183088B42CD
:1007300001D38B00C01A524143088B4201D34B00B6
:10074000C01A5241411A00D2014652411046704728
:100750005DE0CA0F00D04942031000D3404253402D
:1007600000229C4603098B422DD3030A8B4212D3ED
:10077000FC22890112BA030A8B420CD3890192111F
:100780008B4208D3890192118B4204D389013AD05C
:10079000921100E08909C3098B4201D3CB01C01A31
:1007A000524183098B4201D38B01C01A5241430944
:1007B0008B4201D34B01C01A524103098B4201D332
:1007C0000B01C01A5241C3088B4201D3CB00C01A9F
:1007D000524183088B4201D38B00C01A5241D9D2B7
:1007E00043088B4201D34B00C01A5241411A00D238
:1007F0000146634652415B10104601D34042002B34
:1008000000D54942704763465B1000D3404201B5B2
:10081000002000F005F802BD0029F8D016E7704767
:100820007047C04610B50A4B1A68002A01D1094A20
:100830001A601A6808491018884206D903F018F897
:100840000C2303600120404201E01860100010BD3D
:100850001CE4FF1F88ECFF1F88F0FF1F70B5264BBC
:10086000264C1878032840D80022FFF751FE0212C8
:100870001F32012180252248A1718268AD052A43DB
:1008800082600222E27100221E482272027852180F
:1008900006E002211C48A271E27102782172013245
:1008A00052B20270642A20DD19701EE080201449C3
:1008B00080054A6802434A60FE22E2710022114923
:1008C00022720A78013A52B20A70002A0DDA032223
:1008D0000AE0E271FE220C4922720A78013A52B211
:1008E0000A70002A01DA00221A70A21D04230121D5
:1008F000206800F087FF70BD35E4FF1F24E4FF1F70
:1009000000F10F4034E4FF1F20E4FF1F70B5012405
:10091000044004280FD11E4DA9420CD11D68013599
:1009200009D01C4B1B7B002B2FD0049B002B2CD001
:10093000FFF794FF29E0002501381D600A2824D81C
:10094000FFF7E6FD06151523232323230B1C2000A8
:1009500010490631116004220EE000230D4C11688D
:10096000C85CE11801338871042BF8D10DE0094906
:100970000C190A34146001221A6006E0054B090ABA
:100980001C1901E0034B1C19A172002070BDC04668
:10099000FFFF000024E4FF1F10B5002807D0032844
:1009A00011D10122084B1A73FFF758FF0BE0064CD8
:1009B0002073211D206800F02EFF002803D1A1889C
:1009C000206800F0EBF810BD24E4FF1F802070B514
:1009D0008025802480260E490E4A80018B586D00A8
:1009E00003438B500C4BA4055D670C4B7601586993
:1009F000204358618858304388502020084A556168
:100A0000084A5169014351615A6822435A6070BDD6
:100A1000007004403810000000D0044000F10F4086
:100A200000C00440C0F00F4010B5124C8AB0102234
:100A30000021200002F071FF2422002101A802F011
:100A40006CFF0D4800F0D0F90C4B002001930C4BCB
:100A5000220005930B4B01A908936B460533D87709
:100A6000094B029406940793A08000F063FE0AB03D
:100A700010BDC04624E4FF1FD83A000099090000C9
:100A80000D090000B50C000030E2FF1F10B500F0AA
:100A9000A5F802F07CFA00F0FBF8FFF797FFFFF7EC
:100AA000C3FF02F07BFA012010BD0000CE20002918
:100AB00003D10800014B1B781370704736E4FF1F09
:100AC000CE20002902D10800014B1A707047C046A1
:100AD00036E4FF1F0020704770B50498059C21295B
:100AE0000AD0222902D003292DD10BE01E4B1B6A0C
:100AF00003601E4B1B7A1EE01B4B9B681233036086
:100B0000092318E01A49002B17D08D682E889E42C1
:100B100004D10023022A03D9012201E001231A0093
:100B20000C267343ED186D68960075590560896849
:100B3000CB189B689B5C236013E00A6802600A790B
:100B4000180022600EE0072901D9CE200AE0064BEA
:100B50008A00D3580360054B5B5C23600368002B5D
:100B6000F3D0002070BDC046C0E1FF1F48E2FF1F68
:100B700024E2FF1F10B5002908D1054B013119707F
:100B80000449043311C911C3034B1360002010BD85
:100B900038E4FF1FE4E1FF1F70E2FF1F0D4B70B54B
:100BA0001C000822002007252234A3420CD25E78C4
:100BB000052E06D1022901D19D7100E09A711A71AA
:100BC00058711E789B19F0E70822034B00205A60E9
:100BD00070BDC0460CE1FF1F00E1FF1F10B50024EF
:100BE0002000013402F02AFB052CF9D100F028F88E
:100BF00000F04EF810BD0000002805D18023034A04
:100C00009B001360024A13607047C046049014545E
:100C1000089014541FB510220021684602F07DFE92
:100C2000064B6A4600930223694653720020013B3B
:100C3000937202F01BFA05B000BDC04600127A00A4
:100C40002A2270B500250C4B1A700C4B1D600C4B02
:100C50001D60FFF7DFFF0B4C2000103002F058FA48
:100C6000210028000E3102F0EDF9200002F0A8F971
:100C7000054A064B1A6070BD00E0074048901454C6
:100C80004C901454EE3A0000006CDC027CE2FF1F32
:100C900010B50020FFF7B0FF8022E121044BD20401
:100CA0001A6049020F22002000F01CF810BDC04657
:100CB00004800C5D431E9841C0B2704713B56B466B
:100CC000D91D074B08701A78002A05D058689C680F
:100CD0000122A047002001E00120404216BDC0468D
:100CE00048E4FF1FF0B5364B87B01E78070001912E
:100CF0001D000320002E60D1F9B2009169460978E9
:100D00001A7059700F2A33D00120102A55D103AB25
:100D10009C4619002B4A19CA19C16346BA00D45817
:100D200038006C6002F09AFA380002F07FFA019AFB
:100D30000100200002F03CFD9022A31C5205134349
:100D40001E702000310002F04DFD94235B0523430B
:100D50001E708C23082203345B0523431A708823FA
:100D60005B051C4304232370174BAB60174B1FE03C
:100D7000174C38005C6002F069FA380002F03CFA67
:100D8000019A0100200002F08FFA124B20001E7021
:100D9000310002F0E6FA942308225B051C430E4B57
:100DA00026701A700D4B043A1A700D4BAB600D4B48
:100DB000EB606B4600201B786B7007B0F0BDC0463F
:100DC00048E4FF1FCC3A000003380000253800003B
:100DD00000A0064002A0065203A0865103A00651BF
:100DE00081330000A13300000FB41FB50A4B1B78FC
:100DF000002B0AD0012207AB039300935242069BBB
:100E00000649002000F062F801E00120404205B0F0
:100E100008BC04B01847C04648E4FF1FBD0C0000E2
:100E2000F7B51F0008AB0500187800232B706C1C69
:100E30000E689A4219D09E4209D130236B702F3B25
:100E40002EE023700600631B0134002828D03000F8
:100E50003900FFF7FBFB03007B43F61A3300303306
:100E6000002EEEDA30239B1BEBE7002EE5D061234A
:100E7000002800D0203B0A3B019330003900FFF7E7
:100E80005BFB03007B43F61A019B9B19092E01D8DB
:100E90003300303323700600631B01340028ECD18B
:100EA0001800FEBDF7B506000C001D00FF270192DB
:100EB000019B9C4209DA3000089B09993840984709
:100EC0002B68013401332B60F2E7F7BDF0B599B020
:100ED000089300230C9313000700039109921E9CB2
:100EE000013301D0130000E0B34B0A93089B18783C
:100EF000002800D1D0E13900252800D0C1E100262A
:100F00000425089B15385A78591C2B2A02D1022334
:100F10001E4304E02B2A08D8202A02D12E430B00BE
:100F2000F1E7232A09D10643F9E72D2A01D101234C
:100F3000EEE7302A01D10823EAE700220A200492D2
:100F40005A78591C1500303D092D06D8049B43439F
:100F5000303BD31804930B00F2E72E2A05D10B0087
:100F60005A780131303A092AF9D95A78682A06D0D4
:100F70006C2A08D04C3A51424A419B1809E09A78B1
:100F8000682A05D102E09A786C2A01D1023300E088
:100F900001335A1C5B78089218005838202800D971
:100FA0006DE1FFF7BFFA21006C016C016C016C016F
:100FB0006C016C016C016C016C01D9002F012300E4
:100FC0006C016C016C016C0123006C016C016C0103
:100FD0006C016601D100E1006C016C013A016C0109
:100FE000EA006C016C016300012340E0231D0593BE
:100FF000236801220D9301230DA900930FA8093343
:10100000FFF70EFF0FAB1B1807930D9B0400002B7F
:1010100002DA01342D2509E00225354002D00134E1
:101020002B2503E0730701D52025013408231E4238
:101030000AD0002D00D1B3E0039B39002800984767
:101040000C9B01330C93ABE001231E4208D1039BA0
:1010500001970093049A0CAB21002020FFF722FF98
:10106000002D00D1B6E039002800BBE00023069334
:10107000231D0593236800220E93069B0EA900935F
:101080000FA81023FFF7CCFE08250FAB1B18079302
:10109000040035401023002D1DD000251E420FD026
:1010A000039B390030209847069B7820AB4200D044
:1010B00020380125039B390098470C9B02330C9381
:1010C000039B2100009301970CAB049A3020FFF79B
:1010D000E9FE049C23E00122164220D133400B9309
:1010E00000D002340025039B01970093049A0CABB7
:1010F00021002020FFF7D6FE0B9BAB420FD0039BB5
:10110000390030209847069B7820AB4200D0203829
:101110000125039B390098470C9B02330C93F3067F
:1011200058D5002D56D1039B390030209847069B97
:101130007820002B00D02038039B390098470C9B67
:10114000023402330C9345E0231D059323680E936C
:1011500001230093073317E0231D059323680E93A3
:1011600001230093DB180FE0230008330593636825
:101170000E93012300930F3306E0231D059323688C
:101180000E9301230093093300220EA90FA8FFF745
:1011900047FE0FAB1B180793082304001E420DD017
:1011A000039B2100009301970CAB049A3020FFF7BA
:1011B00079FE049C0EE0C046FEFFFF7F01231E4225
:1011C00008D1039B0100009301970CAB049A2020E7
:1011D000FFF768FE079B1878002809D03900079BA5
:1011E000013B0793039B98470C9B01330C93F1E75A
:1011F00001231E424BD0039B01970093049A0CAB32
:10120000210032E02068231D0593C0B2039B390002
:1012100098470C9B01330C9339E0231D24680593F8
:10122000002C34D02000FFF76BF9012305001E408D
:1012300008D1039B0100009301970CAB049A202076
:10124000FFF730FE2078002807D0039B390098472D
:101250000C9B013401330C93F4E7002E17D02900C6
:10126000039B049A009301970CAB2030FFF71AFE02
:101270000DE0231D05930C9A23681A6007E03900DE
:101280001800039B98470C9B059401330C93089B13
:10129000059C0133089329E60A9B0998002B00D08E
:1012A0000C9819B0F0BDC04688220021394B52017C
:1012B00030B5995080218025374809011A58374C9C
:1012C0000A431A50364A6D00516821402943516043
:1012D000344A11780200C90707D53349F83D8878A8
:1012E000284202D08878284388702A202F498025F8
:1012F00008702F482F496D025850C020196800030C
:1013000001432D4819601958294319501D582B497C
:10131000294080256D042943195080209958800068
:1013200001439950264B64219A6C22409A64DA6CEE
:101330002240DA640022234B1A725A788A434039D9
:101340000A435A70204A5C3111709A2219001A70AF
:1013500002238A791A42FCD010208A79194B024064
:10136000FBD11F20DC782040D870012018715A7101
:1013700058794032104358718B7912481342FBD090
:101380003F23027813400C2203708B7913400C2BFF
:10139000FBD130BD0070044038100000FFF8FFFEA4
:1013A00000B0044000F0074000D0074000E00740D4
:1013B000000001104410000004100000FFFFFFFCBB
:1013C000009004400040064000500640154B16486F
:1013D00010B5190083420CD00023144A92089200E1
:1013E0009A4203D0C458CC500433F9E7104B9960AB
:1013F00001E00F4A936000230E4A0F490F48891AF3
:101400008B4203D0D45CC4540133F9E700231800A5
:101410000B4A0C49891A994203D0D4182070013321
:10142000F9E710BD00E0FF1F000000000001000010
:1014300000ED00E0543C0000443E000000E1FF1FCE
:1014400000E4FF1F88ECFF1FF8B50D4C1E00636819
:10145000050017000020002B11D1E160320065600B
:10146000A660280000F0C3FB32003900280000F01D
:10147000C6FB32000699280000F0C9FB2000F8BD29
:1014800058E4FF1F10B50400FF20002C02D0606854
:1014900000F04EFB10BD030010B5FF20002B02D062
:1014A000586800F003FA10BD054A1368002B02D0FB
:1014B0001279824201D001235B4218007047C04676
:1014C00068E4FF1F0023421C00D0436818007047E7
:1014D00013B50C6A002C07D00300496A021D009165
:1014E000083302490420A04713BDC046FFFF000097
:1014F00013B50C6A002C07D00300496A021D009145
:10150000083302490520A04713BDC046FFFF000075
:10151000F0B587B0009001911400012800D084E05C
:10152000130040331878FFF7BFFFA36B421C33D082
:10153000FF2200990592200004AA984705AA0621D7
:101540002000A36B9847059DFF2D05D0049800222D
:1015500003780C269C4608E059481AE033005343B0
:1015600041685F5C032F04D00132D3B29C45F5D8AB
:1015700002E09542F8D101E052480AE0C9188A68B1
:101580000432E2604268D31899680B79022B10D9B3
:101590004D48FFF729FC90E005AA0021200098475C
:1015A000059A93680433E36091680B79022B00D9A4
:1015B00083E000230A79E7689A4215D93C26B446AD
:1015C0007A68D8001518AE785A002D78A21894447D
:1015D000F601761965462E707D683D3228184078F0
:1015E00001331070DBB2E5E700263B78B3421FD928
:1015F0007B68F5005D1901222900206800F00DFAD2
:10160000AB78012B06D12978813B1943C9B223005D
:101610002E4A04E0002B05D1230029782C4A2068AB
:1016200000F017FA0136F6B2DFE7009B032B07D173
:101630002369002B41D062690199009898473CE0EA
:10164000002BF5D0092B1AD11500019B3C351E78D3
:10165000002DEDD0F309039313000F2740330293BD
:101660002B7873403B4205D13100039A3940206802
:1016700000F096FA029B0235AB42F1D1D8E7009B0D
:10168000142BD5D11500019B3C351E78002DCFD0F1
:10169000F309039313000F27403302932B78734011
:1016A0003B4205D13100039A3940206800F078FAB6
:1016B000029B0235AB42F1D1BAE707B0F0BDC0469C
:1016C000023B00001C3B0000343B0000D114000032
:1016D000F114000037B5602405782C40202C13D17C
:1016E000040008340C601C6A002C01D1CE2012E0EA
:1016F000C48814605C6A4588407800941C6A1300B2
:101700000A002900A04706E0402CEFD19C69002C7C
:10171000ECD0DB69A0473EBD054A10B59E23904240
:1017200004D14422002102F0F8F80023180010BD73
:1017300070E4FF1FF0B585B002900F000392FF2404
:10174000002956D02C4E3E3C33683500002B50D13A
:101750006B4634001B7A403423700298FFF7A4FED6
:10176000431C09D02078FFF79FFEB060FFF7AAFE68
:10177000041E306015D107E0390032001C31029898
:1017800000F0CEF8041E03D03000FFF7C5FF30E0B4
:10179000BB691A4A00931A492B002868FFF754FEC8
:1017A000A860280008223900103002F0ADF8390096
:1017B000280008310822183002F0A6F83900280065
:1017C00010310822203002F09FF828001422B96955
:1017D000283002F099F8039B00241D602B00403351
:1017E0001878FFF761FE431C03D12968029800F0C6
:1017F0000BF9200005B0F0BD70E4FF1FD516000006
:101800001115000010B50400FF20002C02D0A068C4
:10181000FFF738FE10BD030010B50A00C320002BEF
:1018200003D008219868FFF736FE10BD70B54A7BDB
:1018300005000C00002A06D0102A07D1002208302B
:1018400000F0FAFA02E0083000F03CFB2B00002028
:10185000627B44331978914208D10C2358432818ED
:10186000C36B016C20009847002004E001300C336A
:101870000828EFD17B3070BD7F2303405A1E10B57E
:1018800048730C680E2A03D8CA7BD20113434B73EA
:101890002000FFF7CBFF10BD10B5436802001B6BA3
:1018A000FF20002B01D01068984710BDF8B5050047
:1018B00004000E009C352868170001F0A7FA636841
:1018C000F20601D55B6A00E05B6C002B04D128684E
:1018D00001F0A4FAFF2007E03A00310020689847A1
:1018E000286801F09BFA0020F8BDF8B50400050057
:1018F0009C3420680E00170001F088FA6B681B6C9E
:10190000002B08D03A00310028689847206801F081
:1019100085FA002003E0206801F080FAFF20F8BD7E
:10192000F7B506000F000192C120002A65D0334CA4
:101930002500A0352B78012B5FD0A42200212000A8
:1019400001F0EBFF01232B7025000023A2352B7043
:101950002300A1331E7001F03BFA23009C33186072
:1019600060232A78FF215343254AD318E3610023DB
:101970001A000C334432A154602BF9D1012E04D942
:101980000023A0342370C02037E01E4D2B68656013
:10199000002B02D021002000984723688720002BCD
:1019A0002BD0E3602461002F05D1300001F0C0F995
:1019B00000280FD006E03B68002BF6D03879984716
:1019C0000028F2D06B6BC420002B16D020689847FB
:1019D000C42012E06B68FF20002B0ED0216830007D
:1019E0009847002807D06B6B8D20002B05D020680E
:1019F00098478D2001E0019B1C60FEBD20E5FF1F84
:101A0000C0E4FF1FBC3B000010B54B689B681A1E6A
:101A100001D098470200100010BD10B588B0002812
:101A200001D1FF2013E00C7801AB1C708C785C7046
:101A30008C889C8249789A750022039204924268AD
:101A400099709269002AECD019000068904708B09C
:101A500010BDF7B504000E0001921F00FF20002CFE
:101A60002ED025009C35286801F0D0F923002100F4
:101A700044331A00A4311078B04204D1286801F030
:101A8000CDF984201CE00C328A42F4D1002219786E
:101A9000FF290DD10C235343E418230044331E7057
:101AA000019B2764E363286801F0B8F9002007E090
:101AB00001320C33082AEAD1286801F0AFF98120FD
:101AC000FEBDF0B585B004000F0000920193002820
:101AD0002BD043689B6C002B27D003A90068984744
:101AE000061E22D125009C35286801F08FF9039B42
:101AF000019A1F70039B5E70039B9A60009ADE60E0
:101B00005A600622DA7063681B69002B0AD00399B9
:101B1000206898470400286801F080F9201E05D04D
:101B2000942003E0286801F079F9FF2005B0F0BDAA
:101B3000F0B585B004000F000092019300282CD06E
:101B400043689B6C002B28D003A900689847061EA9
:101B500023D125009C35286801F058F9039B1F709C
:101B60000123039A5370039B019ADE609A60009AE6
:101B70005A600622DA706368DB68002B0AD003998A
:101B8000206898470400286801F048F9201E05D015
:101B9000932003E0286801F041F9FF2005B0F0BD73
:101BA000F7B5050001911700FF24002810D00600AA
:101BB0009C36306801F02AF96B681B6A002B04D050
:101BC0003A000199286898470400306801F026F926
:101BD0002000FEBD030010B5FF20002B06D0586882
:101BE000C46BFF20002C01D01868A04710BD030073
:101BF000FF20002B02D0002019625A6270470300B8
:101C0000FF20002B02D000209962DA6270470300A7
:101C1000FF20002B02D0002019635A637047030095
:101C200010B5FF20002B05D05A68D26C002A01D0D5
:101C30001868904710BD01213030196010600020F5
:101C4000704770B5150001221A60836A04005B6852
:101C5000CA20002B04D009792200E06A98472C6042
:101C600070BDF7B500266A461E600323971DD68017
:101C70000A7805000C0013400420012B16D1AB6A32
:101C8000C6309B68B34211D08A78E86A09799847D0
:101C9000AB691800B34209D0A288A17812020A43A6
:101CA0003A800220EA69390098473000FEBDF7B556
:101CB0001700826A06001568CA20002D08D088889F
:101CC0004C880193E2B20300210A0097F06AA8470A
:101CD000FEBD70B5150002221A6004000200052145
:101CE0008068FFF7E3FD2C60C0B270BDF8B51E0040
:101CF0001F230D78040017001D400CD1020006219F
:101D00008068FFF7D3FD03232288C0B213402380ED
:101D10000223336012E0012D04D1002303803560DB
:101D2000FF200BE0FF20022D08D10B7910212200AB
:101D30001943A068FFF7BAFD3560C0B23C60F8BD3A
:101D4000002273B51A606B464A889D1D2A80534253
:101D50005A410400012192B28068FFF7C6FD29882C
:101D6000A36A2186DB68C6B2002B02D0C9B2E06A42
:101D70009847A369002B0BD0E269290001209847FE
:101D80002B88002B04D0A369E26900210320984727
:101D9000300076BD70B500240E0005001C600422E2
:101DA00001218068FFF7A1FD738820006B8070BD62
:101DB000002273B51A601F23040048780D7880074D
:101DC000C00F1D4095420FD14A881C3B1A40CB33AF
:101DD000012A2FD1A669BC3B181A331E2AD0626A89
:101DE0002900B0472B0025E0CE23022D22D14A88BE
:101DF00092071FD16A460E79D51D2E700F2100283B
:101E000007D0F2093140A068FFF7E4FEC3B2132007
:101E100009E031401420002905D1F209A068FFF73C
:101E2000BFFEC3B21420A669002E03D0626A290047
:101E3000B0470023180076BD73B5050080680E001A
:101E40000024FFF7ECFE6B469C701C70402301934E
:101E50006B460122694630685C70FFF7DEFD0122A7
:101E60006B46694630689A70FFF7D7FDEA69AB693F
:101E7000A34203D0AB6921002000984773BD70B521
:101E8000040015001800049BCE2905D10122002171
:101E9000A068FFF79FFE13E0D2881968914200D92D
:101EA0001A601B6802680021A068FFF741FE2B78CA
:101EB0007F2B05D90023A0681A001900FFF701FE47
:101EC00070BD0000F0B587B000266B46DE810E23A2
:101ED0000D006B441A000400012180680496FFF78E
:101EE000E5FCAB7BB3424FD027000C370822696872
:101EF000380001F009FD6023227B1A4218D1617B72
:101F0000374B8A00D558B54201D1CE2036E06B461A
:101F1000DA89022AF9D803234B433249CB189B5C58
:101F2000012BF2D105AB04AA39002000A84725E017
:101F3000638A0593002B18D052B2002A15DB0833B0
:101F4000542B05D932003100A068FFF743FE45E06D
:101F500039000822606901F0D7FC6269059B0832EC
:101F600031002868FFF7ADFD38E0256A002DCCD0A0
:101F7000636A05AA04A93800A847C0B205AB00935C
:101F80003A0004AB010026E06B46DB89042B04D148
:101F9000A178A068FFF780FC20E0237B7F2B1DD871
:101FA000EB7B002B1AD1638A002B17D0266ACE2137
:101FB000002E08D0AB6804A90833059305AA636A0C
:101FC0006069B047C1B2AB68013307D0220005ABEE
:101FD00000930C3204AB2000FFF751FF07B0F0BDB7
:101FE000603B0000943B0000FF21F0B5026A030053
:101FF000883211708021026A090594320A43022155
:102000001170026A7F20983211781D00814311708F
:10201000244A00211468F022520094460827640ADA
:1020200064024A3560464A013E00024000202243D5
:102030001643106030601026164330601826324375
:1020400010600A006870287030321E6A92000131F8
:10205000905514350629E5D101248021FD25124A29
:10206000C90410701A6A803214701A6A94320A43D2
:1020700015701A003332107002229A841A6ADC84B6
:102080008C32FE34147080241A6A24058432224370
:102090008D2414701A6A1300DF2294330B431A70D4
:1020A000F0BDC04618E8FF1F04ECFF1F70B5040028
:1020B00001200D0000F05FFF2369002B01D1256195
:1020C00001E063691D61002365612B61A369012043
:1020D0000133A36100F055FF70BD70B5040001200D
:1020E0000D0000F048FFA369002B04D1012000F08F
:1020F00048FFC12010E023692B602369002B04D026
:102100001B692361002B00D16361A3690120013B9E
:10211000A36100F036FF002070BD000037B5040059
:1021200001A9FFF7DAFF21004B310B78174A606BEA
:10213000002B07D113685B0A5B025860019B606B40
:1021400058600AE00825136840195B0A5B022B43BC
:102150005860636B01985B19436000230125019867
:10216000126803700198520A4370019852028370FA
:1021700083600198C575E063493423700B780821AA
:10218000DB000B401343024A1A6037BD18E8FF1FFB
:10219000880008000C210E4B10B51A00816119004F
:1021A000503285314363C2600261FF311C3214003A
:1021B0000C3C22608A42F9D1CA24002164001955DE
:1021C0001B1959709970D9704261080010BDC04642
:1021D00078E6FF1F70B5084C050020000E00FFF7E1
:1021E000D9FF064B064A1033136000F0F1FDE061A1
:1021F00034600020656070BDC4E5FF1F78E6FF1FF6
:1022000000ECFF1FF7B50C00060000F0D1FD230025
:10221000002530331870019380331D70300000F0BA
:10222000CFFD2300102232332062013B5A701D7013
:10223000FF23803003708020236AC0041A7F520776
:1022400003D51C3303437F2203E0EF220933FF331E
:1022500003431A7040220021236A300094331A701D
:10226000236A94331970236A1031FF335972802125
:10227000236A09050D33FF330B431A7000F098FDF4
:10228000070045B2300000F091FD8001002D13DA07
:102290000F223A40083A244B92089200D2180323A6
:1022A0001F409F40FC331D001840BD40B840D1691D
:1022B000A9430843D06114E0C0221C4BAD08AD0017
:1022C000ED189200AB58FF219C4603231F409F400E
:1022D0006346B9408B431900FF230340BB400B43C7
:1022E000AB50300000F064FD1F2318401E3B8340BC
:1022F0000E4A0F491360019B187800F037FE0D4B12
:102300000D4A190A1360226AC9B210009C3001708C
:10231000190CC9B21B0EB432017513702000FFF7FF
:1023200063FE0020FEBDC04600ED00E000E100E0DD
:102330006528000000EAFF1F18E8FF1FB42330B52E
:1023400080244343114D2405EB181B6A1A7F520762
:1023500003D51C332343802203E010220933FF33CB
:1023600023431A70B423802258432818036A1205A5
:102370009433134301221A708022036AD20401337A
:10238000FF3313437F2200201A7030BDC4E5FF1FC6
:10239000142370B50C784A786343C3189B18012244
:1023A00044331A708A8A8D78131C012D04D12C4C69
:1023B000A24204D9231C02E0402A00D9402314225F
:1023C0000C789BB254430419463425700C784D7830
:1023D00054430419473425700C78544304190234CB
:1023E000E38700240B785343C31842331C700B78E7
:1023F0005343C31843331C700B784D785343C318B1
:10240000A54206D149331D700B785A438218D56313
:1024100005E048331C700B785A43821894630C789B
:10242000036A3034A400E4188B788022013B5D1EDF
:10243000AB4112051443DBB223700B78046A3033CE
:102440009B001B194C7813430422002C00D19218D6
:102450001A700B88002B01D1FFF760FE002070BDC1
:10246000FF030000F0B58B6885B00293CB68019341
:10247000002B04D10A7814335343C3189963030023
:10248000B0331A7814230E787343002A3CD1C31852
:102490009A1CD28FF0241F0094461F4A64001568CE
:1024A0004A376D0A6A0275011026254015433A78AD
:1024B000D93CFF3CD200224032432A4303924A686F
:1024C000C96848335118039A51603A784021D200C4
:1024D000144088221B7826439B010B401A43019924
:1024E000029B35435B1A634500D963460B491B04C5
:1024F0000B40134380222B60036AD20494331343AE
:10250000DF2200201A7005E00022C3189A63FFF74B
:10251000CDFD932005B0F0BD18E8FF1F0000FF03BC
:10252000F7B5CB688A6805000C00D61A002B04D1D9
:102530000A7814335343C318D963142327787B4391
:10254000EB180233DB8F9E4200D91E00E2686368FD
:10255000944663440093364B1A68002A0AD003233A
:1025600000993143194205D00021E17551420B40D9
:10257000D31800932B00B0331B780193002B49D163
:10258000012000F0F8FCF0222A4B52001968490A99
:102590004B0279011140194314235F43EF193800AE
:1025A000D93AFF3A94464B3003784937DB00134061
:1025B000009A0B435A60624603788820DB001A4079
:1025C000114340223B789B0113401B4A18433304BC
:1025D0001A40030013430B60012000F0D2FC80225C
:1025E0002B6AD20494331343DF22019F1A70002E0A
:1025F0001BD12378002B18D121002800FFF756FDAE
:102600002A0001214B32137828004B401370FFF74A
:1026100085FD0AE014235F430023EF19FB632100CB
:102620002800FFF743FD9427E1E73800FEBDC046D0
:1026300000ECFF1F18E8FF1F0000FF0314234B43AB
:10264000C318F7B5040018000025433005700138A1
:102650000570AC460D008026206A3035AD00F604CA
:1026600028183043FD2606708026206A3605281873
:1026700001929F1C3043624518D001220270226AE9
:102680006046AD1804222E4332701A004832107092
:1026900008204A331B78DB0003401D001C4B1A68DE
:1026A0001023520A520213432B431CE00200012064
:1026B0001070206A6A462D182E431D0008201279DA
:1026C000493530702A70002903D12000FFF726FD1C
:1026D00014E04B331B78DB0003401A000C4B1B68E3
:1026E0005B0A5B021343F022490152001140FA8F4A
:1026F0000B43084912040A40104318608022236AE1
:10270000D20494331343DF2200201A70FEBDC0466A
:1027100018E8FF1F0000FF031423F0B54B4387B0F8
:1027200006000D001400C318002A02D1DF6BDA6323
:1027300002E000229F6B9A63002F17D0390030000F
:10274000FFF7B4FC01235B4204937B6802AA019368
:10275000039373681100029302AB1D7300239373FC
:10276000631E9C412800D473FFF786F8002007B051
:10277000F0BD0000F8B50D0014000600FFF7CCFF17
:102780002B000020326A30339B0098540E4B1022ED
:1027900019682301490A4F0239001340D132194305
:1027A000FF326B011A400B001343012208215242F1
:1027B0005A600B435A6014235D4376193419B31CD5
:1027C0004434DA872070F8BD18E8FF1FF8B51424E8
:1027D0004C4304191700220001230D0043321370EB
:1027E000013A13703A000600FFF796FFA31C082277
:1027F0001A496D01DB8F1A48002F14D04A3424780F
:102800000968E400490A1440490292181143220061
:102810000A43F0211B0418408C2349000D402A4331
:102820001843106011E04B3424781B04E40022406C
:102830000C681840640A640222431100F0228C23C1
:10284000520015402943184308608022336AD2049D
:1028500094331343DF2200201A70F8BD18E8FF1FDD
:102860000000FF03F0B5D14D8BB02B6A1E0019009C
:10287000803684313278097811400822114200D123
:1028800011E190331978C9B202911C7819781B783C
:1028900011403270C64A240912685B07520A60016F
:1028A000C9085202DB0F0243DB0008010343134354
:1028B0001F68BB01BF069B0D3F0F01933B000D3B03
:1028C0005E425E41F3B203932E00002944D01423EC
:1028D0006343EB18996B002900D1E4E0C868019AC2
:1028E00084466244CA6094468A68012704921A00AA
:1028F0004A321078784010701800483002787A40D8
:102900000270049A944504D00233DB8F019A9A42F4
:102910001ED2CB68142508934B68654307930023A8
:102920007519AB6330000235FFF7C0FBEB8F019ADE
:102930009A4200D093E0002C00D09CE001229D4BF5
:1029400021001A70706823002200FFF7F1F8AAE056
:102950002800FFF787FDA6E0002C16D1019B002B75
:1029600013D16A466B681279069306AB1A736A46EE
:10297000127B01989A73029B06AA1B07DB0F1100BA
:10298000D373FEF779FF2B6A87E08A4B1978002909
:1029900001D00021197014236343F618F56B002D44
:1029A00000D180E0EB7D002B0ED108214B3633782F
:1029B000DB000B401A4351686B68EA689818814243
:1029C00002D0019A00F0A0FFEA68019B944663449C
:1029D0000493EB60AB68754E0593002C11D10D2F5D
:1029E0000FD1012230002100FFF796FE33000122B3
:1029F00048331A70330049331A704B3633785340DA
:102A00000BE014236343F6183300012149331A788D
:102A10004B364A401A7033784B403370AB6863488A
:102A2000002B0BD0049B059A934207D014236343D9
:102A3000C3180233DB8F019A9A420CD2EB68002252
:102A400008936B682900079314236343C318DA6360
:102A5000FFF72CFB03E02900FFF762FD23E0002CC9
:102A600009D1019B002B06D1524B1B78002B02D1C0
:102A70004E48FFF753FB6A46E0B24C4C127B63684A
:102A8000069306AB9A731873029B06AA1B07DB0F0B
:102A90001100D373FEF7F0FE236A80229433D20430
:102AA0001343DF221A70414C236A1800190080304A
:102AB00084310278097811400122114213D021009B
:102AC000B0310A70903302701B7862681B0906925D
:102AD00006AA13730023110010209373D373079376
:102AE0000893FEF7C9FE236A1A001D008032843560
:102AF000117828780140042001420AD01900107092
:102B0000A4310878A033197803020B4323852023CE
:102B1000137013782A781340DB0944D08022244BA9
:102B2000D2041B6800255B0A5B0201932300082680
:102B3000944640339A78012A23D1E032FF3268016B
:102B40001040019A9F7A10431022FF000243374041
:102B500017431A88184912040A4032433A60DA7A55
:102B6000D200324010431A88120411402A00314327
:102B70000160216A30329200521861460A43FD21F9
:102B8000117001351433062DD4D18022236A80338D
:102B90001A70230042331A78012A04D1002220003F
:102BA0001A70FFF7BBFA0BB0F0BDC046C4E5FF1FBB
:102BB00018E8FF1F04ECFF1F0000FF037F2310B580
:102BC000026A983214789C430B402343137003002D
:102BD0003333197001238384002010BD70B5802524
:102BE00000247F23026AED0484322A431470026AAF
:102BF0009832117899431170036A802194332B43E2
:102C00001C70036A09055A1C4023FF320A431370E3
:102C10008022036A0133FF330B431A70FF2383843E
:102C2000C06900F0E5F8200070BD0F23194005339E
:102C3000594340184230037800201380704770B524
:102C40000C000F21142321404B43C3181D004235B3
:102C50002A70012A03D1E209FFF7B8FD0BE0FF2437
:102C6000002A09D11A0043321278002A04D04733CF
:102C70001A78FFF7E3FC0400200070BD70B50E0069
:102C80000400C069150000F0C1F8701E05280BD8BB
:102C9000FDF73EFC030A0A070905A58404E0E58464
:102CA00002E0E58500E02585E06900F0B7F8002046
:102CB00070BD70B50E000400C069150000F0A6F8E4
:102CC000701E072814D8FDF723FC0413080B0D060B
:102CD000130FA38C0BE0E38C09E02300333305E0F2
:102CE000E38D04E0238D02E0230031331B782B8039
:102CF000E06900F093F8002070BD70B50400002575
:102D0000290000222000FFF735FD290001350122AE
:102D10002000EDB2FFF72EFD062DF1D12000FFF7C8
:102D200063F92000FFF736FA0020B034207070BD40
:102D300070B50500822400F043F8002D28D18022D0
:102D4000144B52021A608022134BD2021A601B6885
:102D5000124EDBB2002B08D0012B07D100F010FA85
:102D60002C00B04202D0822400E01C00002000F0C1
:102D700033FAB04200D082248022094BD2021A607A
:102D80008022084B52041A608022074B12061A60F8
:102D9000200070BD0480045804800459006CDC02DB
:102DA000348004590470045C0070845F0320704711
:102DB00003005A42534118205B42184070470000FC
:102DC000002801D0002000E00048704700200740A4
:102DD00010B50C2000F084F8041E08D000F051F863
:102DE00003002000002B02D000F080F8002010BD6E
:102DF00070B5050000F056F8041E04D1280000F05C
:102E000075F8200001E00120404270BD10B500219E
:102E100000F07AF843425841013810BD10B500F077
:102E200037F8431E9841404210BD0000F7B5012419
:102E30000C4B00261C606B460B4F0C4D1C705C70DD
:102E40003E600099280000F0E4FA01AB1E705C704F
:102E50002800019900F0BFFA98235B051D432E60FE
:102E60003C60F7BD3880045000000450000004406E
:102E700080230A1A5B02D318814200D31300180082
:102E800070470023437043600370836018007047ED
:102E900070B50500002400F0FFF96C7000F0F0F947
:102EA000200070BD0020704700220A4B9A641A006F
:102EB00040329A631A0030329A621A0020329A61C4
:102EC0001A0010329A60044A1360044B9B60DB6066
:102ED0007047C04620ECFF1F1CECFF1F08ECFF1FD3
:102EE00010B50100012000F0B9FC10BD10B500F0D4
:102EF00001FD002010BD000010B5024800F09AFA54
:102F000010BDC0460000044070B544780500E4B22E
:102F10000E00002C05D100F0BFF901236B702C705E
:102F200012E0022400291FD00378002B0FD0FFF7F6
:102F3000E3FF01006868AE68FFF79AFF864212D28D
:102F400000F0AAF900232B7000F09AF90CE04B1C5A
:102F500009D000F0A1F901232B7000F091F9FFF7DF
:102F6000CBFFAE6068600324200070BD10B540B296
:102F700000F07CF910BD10B5012801D100F08CF9EA
:102F800010BD10B5012801D100F07AF910BD10B5BF
:102F9000FFF78AFFFFF74AFF002010BD10B5064B70
:102FA000064C236022681368002B01D050689847B4
:102FB00023689B68F5E7C04608ECFF1F18ECFF1F6D
:102FC000F7B51C4D04000021280000F03DFA032253
:102FD0002B7838201A408023A1795B42C900134323
:102FE00001400B43DBB2144A2B701378002BFCD149
:102FF000124A1378114F022BFBD1227B0D4D009208
:103000000022E37A1100280000F078FB061E0ED1A2
:103010000B4B1D4328703B78032BFCD1A378002B6E
:1030200005D0E37862792179024800F0C5FA3000D2
:10303000FEBDC046004006400640065206400E5106
:1030400000000813084B8000C2589C200B784005F4
:10305000DB011043DBB2037094235B051A434B780A
:103060005B01DBB2137070470C3C000070B58B7ACB
:1030700005000C00012B14D1097962794B1E99418E
:10308000531E9A41A379C900581E8341E0799200EA
:1030900001435B00114319430F4BAA00D05800F0C5
:1030A00071FB210028000B31FFF7CCFFA37A227AB5
:1030B000617A0A4800F010FBA37A012B06D1E37A6B
:1030C000002B03D0064A1378002BFCD02268054B56
:1030D00000201A6070BDC0460C3C00000040064055
:1030E0000640865078ECFF1F4309084A9B00991858
:1030F000F822C30512051A4080235B0513431F22E3
:1031000010401E3A82400B431A60704728800440EA
:1031100037B5C3788178009300230500074C1A0067
:10312000200000F037FB2B78054A1B041360054B89
:103130001C436B789B04236037BDC046007004407D
:10314000048004580000081910B5054800F0A2FAE0
:10315000044B1968C9B20131FDF7EEF910BDC04644
:103160000040064044801C5E10B5FFF7EDFF034BA6
:103170001968C9B20131FDF7DFF910BD4480145858
:10318000094B10B51B68DBB2002B06D0012B08D110
:10319000064800F03BFA400804E0044800F0BCF99F
:1031A00000E0002010BDC0460480045800400640E6
:1031B0009C230020064A5B05126882B013431B78EB
:1031C0000192834201D0034B186802B07047C04699
:1031D0000C3C000078ECFF1F054B10B51B68DBB200
:1031E000002B02D1034B186801E0FFF7C9FF10BDA7
:1031F0000480045970ECFF1F0A4B10B51B68DBB24A
:10320000022B07D0032B08D00020012B08D1FFF799
:10321000B7FF05E0FFF7CCFF02E0034800F01AFA21
:1032200010BDC04604800C5D00400640030010B590
:103230000020022B01D8FFF797FF10BD10B5024BFD
:10324000185CFFF751FF10BD103C00008022024BBC
:10325000D2001A607047C0463480045510B5024B46
:10326000185CFFF741FF10BD153C00000300034A46
:1032700010339B00985899507047C04600E0FF1FDC
:10328000044A1368002B04D0013B1360002B00D1CB
:1032900062B6704774ECFF1F72B6024A13680133BE
:1032A0001360704774ECFF1FF0B50F0087B09100FA
:1032B000029038001400FDF73FF981000600380045
:1032C000FDF73AF9231A0193844201D2031B0193BB
:1032D00005252B00634304930423039304993800CA
:1032E000FDF72AF983B21900380069430593FDF709
:1032F00023F9231A844200D2031B019A934202D875
:10330000059E01930395049B01351B190493212D00
:10331000E4D164212000FDF70FF903234343019A10
:1033200002209A421BD2039B043B032B05D8802228
:10333000029B12050B33134318708122002002995F
:10334000039B52050A31013B1143DBB20B70029B18
:103350001A43330ADBB21370029BF6B25E7007B0F9
:10336000F0BD842210B501230C0002305205024347
:103370009C4314708022520510430B40037010BD13
:1033800010B59C24031D64058A182343914206D07E
:103390001C78002CFCD00C780131C471F6E710BD0C
:1033A000F0B58C23050000202E1D5B058A183343E1
:1033B00091420FD09424640534432778002FFCD029
:1033C000EC790C701C78002C02D0082018700730A3
:1033D0000131EDE7F0BD37B5022401AD01912B7845
:1033E00001685B0023401A006B78A3402419234036
:1033F0001343BE229143AA780434D20022400B43E7
:10340000134330211A00EB781B010B401343036078
:1034100037BD37B504220B1C0D009B0013401C0068
:1034200074326B0B134089052343890F19434160A4
:1034300037BD0000034B0C301843002303600068C5
:103440007047C046000078108822431C5205134381
:103450001B78002B06D0842306305B0518430378C5
:10346000002BFCD07047D14010B50C00002B13D0BE
:10347000072A10D81000FDF74BF8040404040404D4
:1034800006084C0908E0142100E00C212000FDF79B
:1034900053F8040000E00024200010BD882313B579
:1034A0005B0503431978C9B200290ED1084B094CBA
:1034B00003431A78431C23431B7800910649D2B278
:1034C000DBB20968FFF7CFFF01E0044B186816BDB7
:1034D000000090110000081278ECFF1F80E2FF1F2F
:1034E00030B5002A05D0802400202402A14206D94C
:1034F0000BE0064C064D0C191000AC4205D85B00E1
:103500009A18044B5200D05A484330BDEE85FFFF55
:10351000851E0000183C0000942210B5831D520542
:1035200013431B780400002B01D0002010E0FFF7AC
:10353000B5FF011EF9D09C220648E31C52051A4330
:10354000034312781B78D2B2DBB22000FFF7C8FF2A
:1035500010BDC04600008812030030B5154A08337C
:1035600013431B788B4223D08023441C5B051C43F0
:103570002278002A08D1037A0E3249001140013224
:1035800093431943017213E000222270821D1A43F3
:103590001378002BFCD10E25037A49002940013510
:1035A000AB4319430123017223701378012BFCD123
:1035B00030BDC04600009010F7B580240093831DF5
:1035C00006000F00451C64050193012913D1110069
:1035D000FFF7C2FFB31D234325431C002F70237840
:1035E000012BFCD1032233789343013A1343009A11
:1035F0001A433270F7BD002325432B70831D2343EC
:103600001C002378002BFCD1ECE70000942270B55D
:103610000400831D520513431878231DC0B20028EF
:1036200005D1982252051A431278002A0FD081251D
:103630006D052B431978064B01311868C9B2FCF7A8
:103640007BFF05342C4323781833DBB2584370BD1D
:1036500078ECFF1F842252050243030000201278F9
:10366000824210D080215A1C49050A4312788242B6
:1036700002D1054B186806E004480833044A0343A6
:103680001B781068D840704780E2FF1F0000901040
:1036900084E2FF1F10B50E49821D0A431278030011
:1036A000D2B20020032A12D81000FCF731FF060A1C
:1036B0000E021800FFF7AAFF09E01800FFF72CFF21
:1036C00005E01800FFF7C6FF01E0024B186810BDC7
:1036D0000000081178ECFF1F30B5042544789B00EA
:1036E0002B403835AC4323430824D2002240090143
:1036F00028341A4321401143417030BD8422F8B56B
:103700001D0006AB1F785205431C13430022040022
:103710001A701A4B803203431A70194B861D3343BB
:103720001A78022AFCD12000FFF78EFE9821002291
:103730004905231D0B431A70631D19430A70942217
:10374000520532431378002BFCD120791F33984364
:103750001D400543257160791F409843074321337D
:1037600067710B701378002BFCD098235B051E4308
:103770003378002BFCD00020F8BDC04600000813B1
:10378000000008110F22037893431943C9B2017056
:10379000704700006B46E0221B78D2021B041340E6
:1037A00009071943014BC1507047C046441000003F
:1037B00070B5040008001101FCF7BEFE83B25A1E6A
:1037C000074D92B20221AA4207D881220021520558
:1037D00022431B0AC0B213706070080070BDC0465F
:1037E000FE1F0000842210B501230C000230520598
:1037F00002439C4314708022520510430B40037017
:1038000010BD30B59C24031D64058A1823439142E2
:1038100007D01C78002CFCD00C7805790131C471DC
:10382000F5E730BDF0B503008C2400201E1D6405B3
:103830008A183443914210D094256D0535432F7872
:10384000002FFCD01D79DD790D702578002D02D078
:103850001879D8790F200131ECE7F0BD10B5034B92
:103860000A000100186800F060F810BDE8E2FF1FD0
:10387000014B18687047C046E8E2FF1F084B10B5BF
:103880000400002B02D0002100E000BF054B1868A7
:10389000836A002B00D09847200000F015F9C0463D
:1038A00000000000283C00000E4B70B500251E00F3
:1038B0000D4CE41AA410A54204D0AB00F35898476D
:1038C0000135F8E700F0B2F9084B00251E00084C5E
:1038D000E41AA410A54204D0AB00F3589847013570
:1038E000F8E770BD4C3C00004C3C00004C3C000034
:1038F000503C000010B5034B0100186800F024F89C
:1039000010BDC046E8E2FF1F002310B59A4203D065
:10391000CC5CC4540133F9E710BD03008218934214
:1039200002D019700133FAE770474A4370B51100AD
:10393000140000F055F8051E03D022000021FFF707
:10394000ECFF280070BD000070B50500002944D0D0
:103950000C1F2368002B00DAE418280000F0B2F8EE
:103960001E4A13681100002B02D16360146031E01D
:10397000A3420DD92268A018834203D118685B685E
:103980008218226063600C6024E0A24203D8130016
:103990005A68002AF9D11E689819A0420BD12168F3
:1039A000711858181960824214D110685268411871
:1039B00019605A600EE0A04202D90C232B6009E086
:1039C00021686018824203D1106852684118216052
:1039D00062605C60280000F076F870BD80ECFF1F2C
:1039E000032370B5CD1C9D43083506000C2D01D274
:1039F0000C2501E0002D01DBA94202D90C23336024
:103A000048E0300000F05EF8234B1C681A002100EB
:103A1000002913D00B685B1B0DD40B2B02D90B6054
:103A2000CC181EE08C4202D1636813601AE04B6828
:103A300063600C0016E00C004968E9E7174C236846
:103A4000002B03D1300000F02BF82060290030005B
:103A500000F026F8431C18D00323C41C9C43A0424A
:103A60000DD12560300000F02EF8200007220B3029
:103A7000231D9043C31A0ED05A42E2500BE0211A84
:103A8000300000F00DF8431CEBD10C233000336004
:103A900000F019F8002070BD80ECFF1F7CECFF1FC8
:103AA000002370B5064C050008002360FCF7BAFE41
:103AB000431C03D12368002B00D02B6070BDC0468F
:103AC00084ECFF1F70477047FEE7C046000000000F
:103AD00000B0064000C00640626567696E20746FE2
:103AE0002074657374206D6F7573650D0A00800016
:103AF00001000000030000000001000001000103BC
:103B000001036E6F742066696E6420696E7465725D
:103B10006661636520696E6465780A006E6F742063
:103B200066696E642068696420696E746572666196
:103B300063650A00746F6F206D616E792068696437
:103B400020656E64706F696E7420666F7220746891
:103B50006520636C617373206472697665720A0014
:103B6000ED1C0000B11D000000000000B11D0000B0
:103B700000000000951D0000AF1C000000000000C8
:103B8000371C0000411D0000431C0000631C0000A6
:103B9000D31C000001010001010000000001010030
:103BA000000000000101010101000000010100010D
:103BB000010001000001000001000000D52100000B
:103BC000052200003D23000065240000212500009F
:103BD0001927000091230000752700003D260000F2
:103BE0002B2C00003F2C000000000000BD2B00002B
:103BF000DD2B000000000000CD2700007D2C000020
:103C0000B32C0000DB200000FB2C0000005006401D
:103C1000898A8B8C8DFF6B6C8002DC020005B805F5
:103C200080079508000A710B88E2FF1FF8B5C046AF
:103C3000F8BC08BC9E467047F8B5C046F8BC08BC46
:043C40009E467047E5
:083C44002CC8FF7F0100000005
:043C4C003904000037
:043C5000110400005B
:103C54000103010008000000040309040902220012
:103C6400010100C03209040000010301020009211E
:103C74000001000122340007058103080008050142
:103C84000902A1010901A10005091901290315006F
:103C940025019503750181029501750581010501D1
:103CA4000930093109381581257F75089503810686
:103CB400C0C02203420041004400200053005400CD
:103CC400520049004E0047000000000000000000C0
:103CD400000000003A03460052004500450053002E
:103CE400430041004C0045002000530045004D00B6
:103CF400490043004F004E00440055004300540067
:103D04004F005200200049004E0043002E000000E6
:103D14000000000010E2FF1F0CE1FF1F0000000084
:103D2400000000000000000000000000000000008F
:103D34002EE1FF1F0100000000E1FF1F24034D00DE
:103D44004300550020004D004F005500530045002E
:103D54002000440045004D004F000000000000001A
:103D64001201000200000040A2157C0002000102C2
:103D74000001000008E1FF1F0401000054E2FF1FDE
:103D8400D90A0000AD0A0000C10A0000D50A0000EB
:103D9400750B0000043A24220012220000000000E7
:103DA400340000000904000060E2FF1F44E2FF1F2A
:103DB40008E1FF1F84E1FF1FECE1FF1F62E1FF1F29
:103DC400030000000100000038E4FF1F006CDC0267
:103DD4000080000000093D00000000000000000019
:103DE40000000000000000000000000000000000CF
:103DF40000000000000000000000000000000000BF
:103E040000000000000000000000000000000000AE
:103E1400000000000000000000000000000000009E
:103E2400000000000000000000000000000000008E
:103E3400000000000000000088E2FF1F00000000F6
:04000003000004E90C
:00000001FF
